:10000000000002204D0E0000B50E00004509000062
:1000100045090000450900004509000045090000A8
:100020004509000045090000450900004509000098
:100030004509000045090000450900004509000088
:100040004509000045090000450900004509000078
:100050004509000045090000450900004509000068
:100060004509000045090000450900004509000058
:100070004509000045090000450900004509000048
:100080004509000045090000450900004509000038
:100090004509000045090000450900004509000028
:1000A0004509000045090000450900004509000018
:1000B0004509000045090000450900004509000008
:1000C00045090000450900004509000045090000F8
:1000D00045090000450900004509000045090000E8
:1000E00045090000450900004509000045090000D8
:1000F00045090000450900004509000045090000C8
:1001000045090000450900004509000045090000B7
:1001100045090000450900004509000045090000A7
:100120004509000045090000450900004509000097
:100130004509000045090000450900004509000087
:100140004509000045090000450900004509000077
:100150004509000045090000450900004509000067
:100160004509000045090000450900004509000057
:100170004509000045090000450900004509000047
:100180004509000045090000450900004509000037
:080190004509000045090000CB
:10040000FFFFFFFFFFFFFFFFFFFFFFFF7EFFFFFF7D
:1004100080F31188704700BF08B50C4941F23802DB
:100420008B5843F400738B50094A136923F080738F
:1004300023F4E06343F4E06313610022054B1A7078
:1004400000F024FDF020FFF7E3FF08BD007004403A
:100450000090044000E00740194B1B7803F0C003F4
:10046000402B0ED0802B13D0F3B9154B5B7913F0D2
:10047000400F1BD1124B1B7813F0040F18D103202F
:1004800070470F4B5B7813F0020F13D101207047B8
:100490000B4B5B7913F0400F0ED1094B5B7813F0D7
:1004A000020F0BD1042070470020704707207047CF
:1004B00000207047022070470620704705207047D3
:1004C0000040064070B582B00546C0EBC0039B00FB
:1004D000B04AD45A14F0C00F17D0AF4941F23802D5
:1004E0008B5843F400738B50AC4A936C23F08073A9
:1004F00023F4E063936404F080039BB22BB1D36CCC
:1005000023F0807323F4E063D364A54B1A7A02F0DE
:100510000E02C5EBC5039B009E490B441B7A9A4211
:100520004AD09F4B5B7813F0010F0CD19C490A7A9B
:10053000C5EBC5039B00974803441B7A02F0F10208
:1005400013430B7238E0964B1B7813F0010F1FD04A
:10055000934A537803F0FE035370914B9B7913F049
:10056000010FFAD18E4A117AC5EBC5039B00894869
:1005700003441B7A01F0F1010B431372537843F0EB
:1005800001035370864B9B7913F0010FFAD013E0EF
:10059000834B5A7802F0FE025A70197AC5EBC502F5
:1005A00092007C480244127A01F0F1010A431A7267
:1005B0005A7842F001025A70FFF74EFF034603F0EB
:1005C0000F0304F00F0101EBC303764A32F8133036
:1005D00099420ED1C5EBC50292006E48024452F812
:1005E000030F009090889279ADF804008DF80620F2
:1005F0000CE003F00F026C4850F8222010680090C5
:1006000090889279ADF804008DF8062003F00F026F
:10061000072A00F23981DFE812F0080008004D00D7
:1006200070007000CB00FA00FA009DF800005C4AF0
:1006300010705B4A927912F0100FFAD09DF80160A9
:100640005748427826F0400602F04002324342709A
:100650009DF80260C27826F01F0602F01F023243A6
:10066000C2709DF80600514A107004F4807292B274
:100670001AB101204A4A10730AE004F4806292B26F
:100680001AB10220464A107302E00020444A107357
:100690009DF80300424A107104F4007292B222B134
:1006A0003F48027942F0400202719DF804003C4A42
:1006B0005071E9E09DF80000394A1070384A92798B
:1006C00012F0100FFAD09DF80100354E727820F02C
:1006D000400002F04002024372709DF80600334A67
:1006E000107004F0200292B2002A00F0CD802C4A53
:1006F000927912F0010FFAD0C6E09DF80100284E61
:10070000727820F0400002F04002024372709DF8BF
:100710000600264A107004F4807292B212B10120D1
:1007200030730AE004F4806292B21AB102201C4ACB
:10073000107302E000201A4A10739DF80000184A56
:10074000107004F0800292B222B1154A927912F030
:10075000020FFAD0124A927912F0100FFAD19DF8D6
:1007600002600F48C27826F01F0602F01F023243D3
:10077000C2709DF80320027104F4007292B21AB1A3
:10078000027942F0400202719DF80400044A50715F
:100790007AE000BF3C12000000700440009004406A
:1007A0000040064084110000041200000050064082
:1007B0009DF80020484802709DF80160427826F0BC
:1007C000400602F04002324342709DF80600434A60
:1007D000107004F4807292B21AB101203E4A107374
:1007E0000AE004F4806292B21AB102203A4A10730D
:1007F00002E00020384A107304F0800292B2002A0E
:1008000042D0354A927912F0020FFAD03CE09DF8BE
:100810000600324A107004F4807292B21AB10120BC
:100820002D4A10730AE004F4806292B21AB10220D9
:10083000294A107302E00020274A10739DF8002017
:10084000254802709DF80160427826F0400602F0CB
:1008500040023243427007290AD1EA00521B92003B
:100860001F48024496791C480671D279427106E00D
:100870009DF80300184A10719DF804005071164A43
:10088000927912F0400FFAD0072B1FD8DFE803F05F
:10089000040A0A04111111180F4A927912F00C0F70
:1008A000FAD113E00C4A927902F00C02042AF9D131
:1008B0000CE0094A927902F00C02082AF9D105E00D
:1008C000054A927902F00C020C2AF9D199427FF480
:1008D00076AE02B070BD00BF00400640005006403A
:1008E0003C12000038B54FF0E023134AC3F8082D3E
:1008F000124B4CF22052DA814DF62812DA814FF475
:10090000E9721A800E4C41F244054FF0A273635114
:100910000020FFF7D7FD4FF08A736351236843F43B
:100920004023236041F20402A35823F4403343F4EC
:100930008033A35038BD00BF0000000000200540F8
:1009400000700440684620F007018D4601B4FFBEE8
:100950005DF8040B85467047704700BF002204E035
:1009600003490B6801330B6001328242F8DB7047A8
:100970000000002038B50546002403E00120FFF701
:10098000EDFF01344FF47A7303FB05F3A342F5DC6A
:1009900038BD00BF10B5084C2068002100F064FB92
:1009A0000520FFF7E7FF2068012100F05DFB05202F
:1009B000FFF7E0FF10BD00BF6000002070B50646E5
:1009C000164B1868002100F0ABFA154B186800218F
:1009D00000F014FB002419E0802323411E4205D0BF
:1009E000104B1868012100F0ADFB04E00D4B1868B6
:1009F000002100F0A7FB0C4D2868012100F06CFBE2
:100A00002868002100F068FB0134E4B2072CE3D928
:100A1000024B1868012100F083FA70BD64000020C9
:100A200070000020680000206C00002070B50646B1
:100A3000164B1868002100F073FA154B1868012155
:100A400000F0DCFA002419E0802323411E4205D087
:100A5000104B1868012100F075FB04E00D4B18687D
:100A6000002100F06FFB0C4D2868012100F034FBE1
:100A70002868002100F030FB0134E4B2072CE3D9F0
:100A8000024B1868012100F04BFA70BD6400002091
:100A900070000020680000206C00002070B5064641
:100AA000174B1868002100F03BFA164B186801211B
:100AB00000F0A4FA00241AE04FF4004323411E4240
:100AC00005D0114B1868012100F03CFB04E00E4BEF
:100AD0001868002100F036FB0C4D2868012100F059
:100AE000FBFA2868002100F0F7FA0134E4B20F2C79
:100AF000E2D9034B1868012100F012FA70BD00BF63
:100B00006400002070000020680000206C000020BD
:100B100038B505462A20FFF751FF0020FFF786FF72
:100B20000020FFF783FF0020FFF780FF7F20FFF703
:100B30007DFF2B20FFF742FF0020FFF777FF00200B
:100B4000FFF774FF0020FFF771FF9F20FFF76EFF94
:100B50002C20FFF733FF002404E02846FFF79EFF18
:100B60000134A4B2B4F5A04FF7D338BD10B5044694
:100B70000020012100F0D4F9714B1868002100F029
:100B8000ABFA704B1868012100F06EFAFFF702FF14
:100B90001120FFF713FF0A20FFF7ECFE3A20FFF7C2
:100BA0000DFF0520FFF742FF2620FFF707FF042077
:100BB000FFF73CFFF220FFF701FF0120FFF736FFB0
:100BC000E020FFF7FBFE3F20FFF730FF2520FFF777
:100BD0002DFF1C20FFF72AFF1E20FFF727FF2020F4
:100BE000FFF724FF1220FFF721FF2A20FFF71EFF47
:100BF0009020FFF71BFF2420FFF718FF1120FFF7BD
:100C000015FF0020FFF712FF0020FFF70FFF002065
:100C1000FFF70CFF0020FFF709FF0020FFF706FF9A
:100C2000E120FFF7CBFE2020FFF700FF2020FFF799
:100C3000FDFE2020FFF7FAFE2020FFF7F7FE05203B
:100C4000FFF7F4FE0020FFF7F1FE1520FFF7EEFEA0
:100C5000A720FFF7EBFE3D20FFF7E8FE1820FFF787
:100C6000E5FE2520FFF7E2FE2A20FFF7DFFE2B201E
:100C7000FFF7DCFE2B20FFF7D9FE3A20FFF7D6FE68
:100C8000B120FFF79BFE0820FFF7D0FE0820FFF7FA
:100C9000CDFEB420FFF792FE0720FFF7C7FEC0206D
:100CA000FFF78CFE0A20FFF7C1FE0220FFF7BEFE11
:100CB000C120FFF783FE0220FFF7B8FEC520FFF733
:100CC0007DFE5020FFF7B2FE5B20FFF7AFFEC7208E
:100CD000FFF774FE4020FFF7A9FE2A20FFF76EFE03
:100CE0000020FFF7A3FE0020FFF7A0FE0020FFF783
:100CF0009DFE7F20FFF79AFE2B20FFF75FFE00206E
:100D0000FFF794FE0020FFF791FE0020FFF78EFE14
:100D10009F20FFF78BFE3620FFF750FE2046FFF79F
:100D200085FE2920FFF74AFE2C20FFF747FE4FF6ED
:100D3000FF70FFF7EDFE0020012100F029F910BD42
:100D40006C0000206000002008B5FFF765FBC020A4
:100D5000FFF70CFFFEE700BF104B11490A465B1A74
:100D600018D1704712F0030F06D1032B04D90021CC
:100D700042F8041B043B0DE012F0010F06D1012BD9
:100D800004D9002122F8021B023B03E0002102F8F3
:100D9000011B013B002BE5D1704700BF7400002010
:100DA00000000020884224D00ABB704711F0030FD6
:100DB0000AD110F0030F07D1032A05D951F8043BDB
:100DC00040F8043B043A12E011F0010F0AD110F090
:100DD000010F07D1012A05D931F8023B20F8023B67
:100DE000023A04E011F8013B00F8013B013A002A05
:100DF000DCD17047124B13B310B5002409E0630037
:100E000023449B000E4A134458689A68FFF7CAFFB0
:100E1000013404EB44039B00094AD1580029EED168
:100E200004EB44039B0013445B68002BE7D104EB05
:100E300044039B0013449B68002BE0D110BD704716
:100E400058120000704700BF704700BF08B5FFF799
:100E5000F9FFFFF747FD0B4B1846002807D08546E2
:100E600081B04FF000006FEA0000009001B0FFF782
:100E700073FFFFF7BFFFFFF7E7FF00200249FFF70F
:100E800063FFFEE7000002200400002008B50020F8
:100E900000F02EF9002000F0F5F8002000F016F820
:100EA000002000F081F8002000F0B4F8002000F0ED
:100EB00045F808BD684620F007018D4601B5FFF7EB
:100EC0004BFDBDE801408546704700BF0F4A1060EA
:100ED0000F4841F23801435843F4005343500D4B3F
:100EE000596941F080615961196821F08061196088
:100EF00009498B6E23F0807323F4E06343F480731D
:100F00008B66064B9A601046704700BF2C0000208D
:100F10000070044000F10F4000D004404400002065
:100F200021B14FF08062044B5A6070474FF08062ED
:100F3000014B9A60704700BF00F10F400F4A1060EC
:100F40000F4841F23801435843F4806343500D4B3E
:100F5000596941F004015961196821F004011960CF
:100F600009498B6823F0807323F4E06343F48073B2
:100F70008B60064B5A611046704700BF300000205E
:100F80000070044040F00F4000A0044044000020E6
:100F900019B10422034B5A6070470422014B9A6036
:100FA000704700BF40F00F400F4A10600F4841F2F9
:100FB0003801435843F4806343500D4B596941F065
:100FC00008015961196821F0080119600949CB68C5
:100FD00023F0807323F4E06343F48073CB60064B0B
:100FE000DA601046704700BF3400002000700440F3
:100FF00040F00F4000A004404400002019B1082236
:10100000034B5A6070470822014B9A60704700BF3B
:1010100040F00F400F4A10600F4841F2380143582A
:1010200043F4806343500D4B596941F40071596199
:10103000196841F40071196009494B6A23F0807303
:1010400023F4E06343F480734B62064B1A6110464D
:10105000704700BF380000200070044040F00F408F
:1010600000A004404400002021B14FF40072044B62
:101070005A6070474FF40072014B9A60704700BF8E
:1010800040F00F400F4A10600F4841F238014358BA
:1010900043F4806343500D4B596941F0010159619C
:1010A000196821F00101196009490B6823F0807368
:1010B00023F4E06343F480730B60064B5A601046E0
:1010C000704700BF3C0000200070044040F00F401B
:1010D00000A004404400002019B10122034B5A60D3
:1010E00070470122014B9A60704700BF40F00F40EB
:1010F0000F4A10600F4841F23801435843F48063AF
:1011000043500D4B596941F002015961196821F0B2
:101110000201196009494B6823F0807323F4E063EE
:1011200043F480734B60064B1A601046704700BF53
:10113000400000200070044040F00F4000A0044038
:101140004400002019B10222034B5A60704702226A
:10115000014B9A60704700BF40F00F40448200008E
:101160000002000060A600000002000020A40000B1
:101170000002000020A400035802000004800000C8
:101180000002000000000100010003000400040050
:101190000400040000000100020003000400040039
:1011A0000400040001000100020001000100010030
:1011B0000100010000000100010003000400040020
:1011C0000400040000000100010003000400050009
:1011D00006000600040004000400040004000500EA
:1011E00006000600040004000400040004000500DA
:1011F00006000700060006000600060006000600BE
:10120000060007007C110000241200005C110000A1
:101210006C1100002C120000641100003412000058
:10122000741100004480000000020000A0A400002F
:101230000002000080A40003580200009700002272
:10124000240003460086000000000C00000001009E
:08125000000014010087930364
:101258005812000000000020000000005812000092
:101268000000FF1F00000000000000000000000058
:041278000000000072
:0400000300000E4D9E
:00000001FF
