:1000000000000320951100001512000041090000B6
:1000100041090000410900004109000041090000B8
:1000200041090000410900004109000041090000A8
:100030004109000041090000410900004109000098
:100040004109000041090000410900004109000088
:100050004109000041090000410900004109000078
:100060004109000041090000410900004109000068
:100070004109000041090000410900004109000058
:100080004109000041090000410900004109000048
:100090004109000041090000410900004109000038
:1000A00041090000410900007517000041090000E6
:1000B0004109000041090000410900004109000018
:1000C0004109000041090000410900004109000008
:1000D00041090000410900004109000041090000F8
:1000E00041090000410900004109000041090000E8
:1000F00041090000410900004109000041090000D8
:1001000041090000410900004109000041090000C7
:1001100041090000410900004109000041090000B7
:1001200041090000410900004109000041090000A7
:100130004109000041090000410900004109000097
:100140004109000041090000410900004109000087
:100150004109000041090000410900004109000077
:100160004109000041090000410900004109000067
:100170004109000041090000410900004109000057
:100180004109000041090000410900004109000047
:080190004109000041090000D3
:10040000FFFFFFFFFFFFFFFFFFFFFFFF7EFFFFFF7D
:1004100080F31188704700BF08B50C4941F23802DB
:100420008B5843F400738B50094A136923F080738F
:1004300023F4E06343F4E06313610022054B1A7078
:1004400000F0C8FEF020FFF7E3FF08BD0070044095
:100450000090044000E00740194B1B7803F0C003F4
:10046000402B0ED0802B13D0F3B9154B5B7913F0D2
:10047000400F1BD1124B1B7813F0040F18D103202F
:1004800070470F4B5B7813F0020F13D101207047B8
:100490000B4B5B7913F0400F0ED1094B5B7813F0D7
:1004A000020F0BD1042070470020704707207047CF
:1004B00000207047022070470620704705207047D3
:1004C0000040064070B582B00546C0EBC0039B00FB
:1004D000B04AD45A14F0C00F17D0AF4941F23802D5
:1004E0008B5843F400738B50AC4A936C23F08073A9
:1004F00023F4E063936404F080039BB22BB1D36CCC
:1005000023F0807323F4E063D364A54B1A7A02F0DE
:100510000E02C5EBC5039B009E490B441B7A9A4211
:100520004AD09F4B5B7813F0010F0CD19C490A7A9B
:10053000C5EBC5039B00974803441B7A02F0F10208
:1005400013430B7238E0964B1B7813F0010F1FD04A
:10055000934A537803F0FE035370914B9B7913F049
:10056000010FFAD18E4A117AC5EBC5039B00894869
:1005700003441B7A01F0F1010B431372537843F0EB
:1005800001035370864B9B7913F0010FFAD013E0EF
:10059000834B5A7802F0FE025A70197AC5EBC502F5
:1005A00092007C480244127A01F0F1010A431A7267
:1005B0005A7842F001025A70FFF74EFF034603F0EB
:1005C0000F0304F00F0101EBC303764A32F8133036
:1005D00099420ED1C5EBC50292006E48024452F812
:1005E000030F009090889279ADF804008DF80620F2
:1005F0000CE003F00F026C4850F8222010680090C5
:1006000090889279ADF804008DF8062003F00F026F
:10061000072A00F23981DFE812F0080008004D00D7
:1006200070007000CB00FA00FA009DF800005C4AF0
:1006300010705B4A927912F0100FFAD09DF80160A9
:100640005748427826F0400602F04002324342709A
:100650009DF80260C27826F01F0602F01F023243A6
:10066000C2709DF80600514A107004F4807292B274
:100670001AB101204A4A10730AE004F4806292B26F
:100680001AB10220464A107302E00020444A107357
:100690009DF80300424A107104F4007292B222B134
:1006A0003F48027942F0400202719DF804003C4A42
:1006B0005071E9E09DF80000394A1070384A92798B
:1006C00012F0100FFAD09DF80100354E727820F02C
:1006D000400002F04002024372709DF80600334A67
:1006E000107004F0200292B2002A00F0CD802C4A53
:1006F000927912F0010FFAD0C6E09DF80100284E61
:10070000727820F0400002F04002024372709DF8BF
:100710000600264A107004F4807292B212B10120D1
:1007200030730AE004F4806292B21AB102201C4ACB
:10073000107302E000201A4A10739DF80000184A56
:10074000107004F0800292B222B1154A927912F030
:10075000020FFAD0124A927912F0100FFAD19DF8D6
:1007600002600F48C27826F01F0602F01F023243D3
:10077000C2709DF80320027104F4007292B21AB1A3
:10078000027942F0400202719DF80400044A50715F
:100790007AE000BF201C000000700440009004407C
:1007A00000400640681B0000E81B000000500640A7
:1007B0009DF80020484802709DF80160427826F0BC
:1007C000400602F04002324342709DF80600434A60
:1007D000107004F4807292B21AB101203E4A107374
:1007E0000AE004F4806292B21AB102203A4A10730D
:1007F00002E00020384A107304F0800292B2002A0E
:1008000042D0354A927912F0020FFAD03CE09DF8BE
:100810000600324A107004F4807292B21AB10120BC
:100820002D4A10730AE004F4806292B21AB10220D9
:10083000294A107302E00020274A10739DF8002017
:10084000254802709DF80160427826F0400602F0CB
:1008500040023243427007290AD1EA00521B92003B
:100860001F48024496791C480671D279427106E00D
:100870009DF80300184A10719DF804005071164A43
:10088000927912F0400FFAD0072B1FD8DFE803F05F
:10089000040A0A04111111180F4A927912F00C0F70
:1008A000FAD113E00C4A927902F00C02042AF9D131
:1008B0000CE0094A927902F00C02082AF9D105E00D
:1008C000054A927902F00C020C2AF9D199427FF480
:1008D00076AE02B070BD00BF00400640005006403A
:1008E000201C000038B54FF0E023124AC3F8082D51
:1008F000114B4CF22052DA814DF62812DA814FF476
:10090000E9721A800D4C41F244054FF0A273635115
:100910000020FFF7D7FD4FF488136351236843F499
:100920004023236041F20402A35823F44033A35030
:1009300038BD00BF000000000020054000700440EA
:10094000684620F007018D4601B4FFBE5DF8040B38
:1009500085467047704700BF704700BF704700BFB3
:10096000704700BF704700BF704700BF10B5044616
:100970000020014600F084FC204600F0FDFC10BD84
:1009800010B504460020012100F07AFC204600F05A
:10099000F3FC10BD08B50020014600F0A9FC0020C2
:1009A000012100F0A5FC08BD08B50020012100F0E0
:1009B0009FFCFFF7EFFFFD20FFF7D8FF1220FFF7A6
:1009C000DFFFFD20FFF7D2FFB120FFF7D9FFAE20F8
:1009D000FFF7CCFFB320FFF7C9FFF120FFF7C6FFF9
:1009E000CA20FFF7C3FF7F20FFF7CAFFA020FFF751
:1009F000BDFF7420FFF7C4FF1520FFF7B7FF0020ED
:100A0000FFF7BEFF7F20FFF7BBFF7520FFF7AEFFAC
:100A10000020FFF7B5FF7F20FFF7B2FFA120FFF70F
:100A2000A5FF0020FFF7ACFFA220FFF79FFF0020EB
:100A3000FFF7A6FFB520FFF799FF0020FFF7A0FF03
:100A4000AB20FFF793FF0120FFF79AFFB120FFF7DC
:100A50008DFF3220FFF78AFFBE20FFF787FF0520BA
:100A6000FFF784FFA620FFF781FFC120FFF77EFF7D
:100A7000C820FFF785FF8020FFF782FFC820FFF71F
:100A80007FFFC720FFF772FF0F20FFF779FFB42029
:100A9000FFF76CFFA020FFF773FFB520FFF770FF93
:100AA0005520FFF76DFFB620FFF760FF0120FFF72D
:100AB00067FFAF20FFF75AFF08BD00BF10F0800F9F
:100AC0001BD111F0800F18D138B50D460446152002
:100AD000FFF74CFF2046FFF753FF7F20FFF750FF43
:100AE0007520FFF743FF2846FFF74AFF7F20FFF7F7
:100AF00047FF5C20FFF73AFF38BD70472DE9F04112
:100B00000446BDF8185010F0800F39D188461746BA
:100B10001E4611F0800F33D1CB18802B02DDC1F1BE
:100B20007F06F6B2E319802B02DDC4F17F07FFB226
:100B30001520FFF71BFF2046FFF722FFE0190138C1
:100B4000C0B2FFF71DFF7520FFF710FF4046FFF70B
:100B500017FF08EB06000138C0B2FFF711FF5C2059
:100B6000FFF704FF002407E0280AFFF709FFE8B2B7
:100B7000FFF706FF0134A4B206FB07F39C42F3DB48
:100B8000BDE8F08100B583B00090002001468022CE
:100B90001346FFF7B3FF03B05DF804FB10F0800FBE
:100BA0000DD110B5144611F0800F07D1FFF786FF65
:100BB000200AFFF7E5FEE0B2FFF7E2FE10BD704746
:100BC00030B5ADF5344D85B004A800214FF4344262
:100BD00000F0A6FF0023019302930393FFF71CFC90
:100BE00000F072F800F03AFA08B100F0A1F900F054
:100BF000DFF901A800F002FA0020012100F0B0FBAB
:100C0000142000F081FFFFF7CFFE142000F07CFFDE
:100C10000020FFF7B7FF322000F076FF00F0A4F9C4
:100C20000128FBD1C82000F06FFF04A800F0B8F93C
:100C300070B13CE003EB002204A98A5C3F2A00D893
:100C40000134023300E00023FF2BF3DD023001E02A
:100C500000200446B328F6DDC82C25DC27E004EB91
:100C6000052304AAD35C312B0CD805EBD57004EB1B
:100C7000D471C0F34700C1F347014FF6FF72FFF78D
:100C80008DFF0AE005EBD57004EBD471C0F347008B
:100C9000C1F347010022FFF781FF023400E0002486
:100CA000FF2CDCDD023500E00025B32DF7DDFEE78B
:100CB000002204E003490B6801330B6001329042CB
:100CC000F8D870470400002008B5002000F09EFE10
:100CD000002000F0DDFE002000F05EFE4FF47A7090
:100CE000FFF7E6FF002000F05FFE08BD08B5FFF744
:100CF000EBFF08BD70B5064600252C461BE080239F
:100D00002B411E4203D1002000F00CFE02E0002027
:100D100000F010FE002000F081FE0A20FFF7C8FF5F
:100D20006400E4B2002000F0CBFD2043C4B20020F8
:100D300000F06CFE0135072DE1DD4620FFF7B8FF1E
:100D4000204670BD70B504460D4616460078FFF784
:100D5000D1FFCC281ED16078FFF7CCFFCC281BD167
:100D6000A078FFF7C7FFCC2818D1E078FFF7C2FFC3
:100D7000CC2815D14FF47A70FFF79AFF002405E0D4
:100D8000285DFFF7B7FFAA280CD10134B442F7DB86
:100D9000002070BD012070BD012070BD012070BD1C
:100DA000012070BD022070BD2DE9F84381468846C0
:100DB00016461F4600243046FFF77AFF0020FFF753
:100DC00099FF0546012807D03046FFF771FF01342F
:100DD000002FF0D0BC42EEDB012D0DD106E000204B
:100DE000FFF788FF09F80400013400E000244445BF
:100DF000F5DB0020BDE8F883B02D02D1FF20BDE86F
:100E0000F8830120BDE8F88370B500242546264606
:100E100013E00020FFF76EFF0134302802D0CC2809
:100E200004D005E0042D05D1012604E0013502E0DF
:100E3000002500E00025132C03DC002EE9D0002063
:100E400070BD012070BD00BFF8B504460D461746C1
:100E50001E46002000F014FE20462946E278FFF7E7
:100E600071FF044630B938463146069A079BFFF7B2
:100E70009BFF04461CB1FFF7C7FF054600E00025B5
:100E8000002000F005FE0DB1FFF730FFE0B2F8BD25
:100E90002DE9F04184B007468846154610238DF8A9
:100EA0000C3000218DF80E108DF80F1080238DF876
:100EB0000D304FF47A73009340F24C43019303A832
:100EC0003A462B46FFF7C0FF034660BB00228DF871
:100ED0000D2001240FE08DF80E400A23009380239B
:100EE000019303A8002105FB04722B46FFF7ACFF1A
:100EF000034620B9013408F1FF36A642EBDC93B972
:100F000001238DF80D3008F1FF388DF80E800A238B
:100F100000938023019303A8002105FB06722B4652
:100F2000FFF792FF0346184604B0BDE8F08100BF0A
:100F300000B585B012238DF80C3000218DF80D100E
:100F40008DF80E108DF80F100A2300938023019363
:100F500003A80DF10B020123FFF776FF9DF80B00AC
:100F600005B05DF804FB00BF00B585B00B4B1868F9
:100F70000390002104AA02F8051D64230093802336
:100F8000019303A80123FFF75FFF9DF80B005A2888
:100F900094BF0020012005B05DF804FB301B000069
:100FA00008B5B4214FF48072FFF772FF08BD00BF8F
:100FB00000B585B0F5238DF80C3000218DF80D10AB
:100FC0008DF80E108DF80F10ADF808108DF80A107E
:100FD0000A2300938023019303A802AA0323FFF7A7
:100FE00033FF9DF808009DF809301B0243EA0043D7
:100FF0009DF80A00184305B05DF804FB00B585B004
:10100000024620238DF80C3000218DF80D108DF84C
:101010000E108DF80F100A2300938023019303A86C
:101020000C23FFF711FF05B05DF804FB10B586B087
:101030000246094B5868059003AC53F8080F5968ED
:1010400003C40A2300938023019305A803A909235D
:10105000FFF7FAFE06B010BD301B000000B585B0EA
:101060000023019302938DF80C3001A8FFF7DEFFF7
:101070009DF80C304BB100200EE004AB034413F894
:101080000C3C552B04D1013000E000200728F4DD92
:10109000082814BF0020012005B05DF804FB00BF44
:1010A000104B11490A465B1A18D1704712F0030F12
:1010B00006D1032B04D9002142F8041B043B0DE0A8
:1010C00012F0010F06D1012B04D9002122F8021BD6
:1010D000023B03E0002102F8011B013B002BE5D19C
:1010E000704700BFD800002000000020884224D0B4
:1010F0000ABB704711F0030F0AD110F0030F07D19C
:10110000032A05D951F8043B40F8043B043A12E0A5
:1011100011F0010F0AD110F0010F07D1012A05D9F2
:1011200031F8023B20F8023B023A04E011F8013B9F
:1011300000F8013B013A002ADCD17047124B13B38F
:1011400010B5002409E0630023449B000E4A1344B9
:1011500058689A68FFF7CAFF013404EB44039B0008
:10116000094AD1580029EED104EB44039B001344F3
:101170005B68002BE7D104EB44039B0013449B689E
:10118000002BE0D110BD70473C1C0000704700BF31
:10119000704700BF08B5FFF7F9FFFFF7A3FB0B4B44
:1011A0001846002807D0854681B04FF000006FEA4E
:1011B0000000009001B0FFF773FFFFF7BFFFFFF7DC
:1011C000E7FF00200249FFF7FBFCFEE700000320D9
:1011D0000800002008B5002000F028F8002000F0EA
:1011E0005DF8002000F092F800F024F9002000F0F3
:1011F0006FFB002000F03EFB002000F0DDFB002034
:1012000000F014FC002000F00FFB002000F09AFB1F
:1012100008BD00BF684620F007018D4601B5FFF705
:1012200099FBBDE801408546704700BF0F4A10603A
:101230000F4841F23801435843F4007343500D4BBB
:10124000596941F400515961196821F4005119603C
:1012500009494B6B23F0807323F4E06343F48073FC
:101260004B63064B1A601046704700BF30000020E9
:101270000070044000F00F40009004403C0000204B
:1012800021B14FF40052044B5A6070474FF40052A2
:10129000014B9A60704700BF00F00F400F4A10608A
:1012A0000F4841F23801435843F4007343500D4B4B
:1012B000596941F480515961196821F480511960CC
:1012C00009490B6B23F0807323F4E06343F48073CC
:1012D0000B63064B5A601046704700BF3400002075
:1012E0000070044000F00F40009004403C000020DB
:1012F00021B14FF48052044B5A6070474FF4805232
:10130000014B9A60704700BF00F00F400F4A106019
:101310000F4841F23801435843F4806343500D4B6A
:10132000596941F001015961196821F00101196001
:1013300009490B6823F0807323F4E06343F480735E
:101340000B60064B9A601046704700BF38000020C3
:101350000070044040F00F4000A004403C0000201A
:1013600019B10122034B5A6070470122014B9A6068
:10137000704700BF40F00F40264B1B889BB2102BDC
:1013800040D000B583B00146EFF3138071B68DF8FD
:101390000700214A13780133DBB21370012B03D10C
:1013A0009DF807201D4B1A701A4A138801339BB20F
:1013B00013801B480278531CDBB203701948815418
:1013C0000F2B02D90022164B1A70174B1B7813F003
:1013D000200F0CD143F02003134A1370134B1B78DA
:1013E000134A10680F491944012200F08FF90A4A84
:1013F0001378013BDBB213703BB9084A107880F3D5
:10140000138803E00B23184670470023184603B0E7
:101410005DF804FB7C00002000000020D0000020CC
:101420007900002068000020640000206500002092
:10143000D400002008B500200D4B18700D4B18701B
:101440000D4B18700D4B18800D4B18700D4B18700C
:101450000D4B18800D4B18700D4B187000F0BAF83A
:101460000C4B18600C49012200F022F908BD00BFA6
:10147000640000207A0000207B0000209000002003
:1014800066000020780000207C000020650000201D
:1014900079000020D40000206700002010B5214B07
:1014A0001B889BB20F2B19D81E4A138801339BB29D
:1014B00013801D490A78531CDBB20B701B49087856
:1014C0001B4988540F2B02D90022174B1A70154B59
:1014D0001B889BB2102B0DD004240CE0154A137806
:1014E00043F040031370144A137843F04003137021
:1014F000012400E0062414F0010F02D0FFF734FAB3
:1015000009E014F0040F01D0FFF726FA14F0020FDF
:1015100001D0FFF725FA094B18680449012200F0B1
:10152000C7F810BD90000020780000206700002060
:1015300080000020640000207A000020D4000020F9
:1015400010B51E4B1A7812F0200F01D1002400E0D4
:1015500002241B490B780133DBB20B700F2B02D92D
:101560000021174B197017490B88013B9BB20B8068
:101570000B889BB26BB142F02002104B1A70104BDB
:101580001B78114A106811491944012200F0BEF875
:1015900008E022F03002094B1A700D4B1B780BB992
:1015A00044F0010414F0020F01D0FFF7D7F914F052
:1015B000010F01D0FFF7D6F910BD00BF6400002075
:1015C000650000207C000020D4000020680000207E
:1015D0007B0000202E4BD8612E4A13602E4A1A60E1
:1015E00000225A601A811A82DA605A821A835A617A
:1015F0002A4A41F23C00115841F4805111502849C7
:10160000702081F81A03086840F08060086041F299
:101610003800115841F40071115002F50052516C1C
:1016200021F0807121F4E06141F400715164116C8A
:1016300021F0807121F4E06141F400711164D16BFB
:1016400021F0807121F4E06141F40071D163916B6C
:1016500021F0807121F4E06141F400719163A2F501
:10166000E8321049116001F1004101F5705111603B
:101670004FF03841D1600C49D1624FF40031116311
:10168000116821F001011160084AD36018467047C3
:1016900098000020940000200000018000700440A9
:1016A00000E100E00100010100002A9A3C00002056
:1016B00030B482B00446038AF3B9EFF3138071B6F5
:1016C0008DF807000F4D28780130C0B2287001282E
:1016D00003D19DF807500C480570E160228200227A
:1016E000228108490A78013AD2B20A702AB9064A18
:1016F000107880F3138800E00823184602B030BC4D
:10170000704700BF00000020D000002030B482B03D
:101710000446038B1BBBEFF3138071B68DF80700F3
:10172000114D28780130C0B22870012803D19DF8EE
:1017300007500E48057061612283002262820C49C5
:101740000A6B42F000720A6307490A78013AD2B282
:101750000A702AB9054A107880F3138800E008233C
:10176000184602B030BC704700000020D0000020B6
:1017700000C00240684620F007018D4631B5284B75
:101780001C68284BDD6A15F4002F02D04FF40022AC
:10179000DA6215F4003F16D0224B996B4FF40032F9
:1017A000DA62238A7BB1E3685A1CE26019702389EC
:1017B00001339BB22381228A934204D100232382E6
:1017C000E069FFF76BFE15F0007F25D0638A228B5E
:1017D000934218D201339BB263826169481C6061F5
:1017E0000878216801439A4201D121F000410D4B54
:1017F0005963628A238B9A420AD100232383E069CA
:10180000FFF79EFE04E0074A136B23F00073136397
:101810004FF00072034BDA62BDE8314085467047F5
:101820009400002000C002400D4A10600D4841F2B3
:101830003801435843F4806343500B494B6923F408
:1018400000734B6109494B6A23F0807323F4E06312
:1018500043F480734B62064B1A621046704700BF18
:10186000B80000200070044040F00F4000A0044089
:101870003C0000200D4A10600D4841F238014358E9
:1018800043F4806343500B494B6923F400334B61AD
:1018900009494B6C23F0807323F4E06343F48073B5
:1018A0004B64064B5A611046704700BFBC000020D5
:1018B0000070044040F00F4000A004403C000020B5
:1018C000024B1869C0F34040704700BF40F00F4022
:1018D0000F4A10600F4841F23801435843F48063C7
:1018E00043500D4B596941F480315961196821F415
:1018F0008031196009490B6C23F0807323F4E06395
:1019000043F480730B64064B1A611046704700BFA6
:10191000C00000200070044040F00F4000A00440D0
:101920003C0000204FF48032014B9A60704700BFAA
:1019300040F00F404FF48032014B5A60704700BFB7
:1019400040F00F400F4A10600F4841F238014358F1
:1019500043F4806343500D4B596941F48021596130
:10196000196821F48021196009498B6C23F0807378
:1019700023F4E06343F480738B64064B5A62104691
:10198000704700BFC40000200070044040F00F40CA
:1019900000A004403C0000204FF48022014B9A60DC
:1019A000704700BF40F00F404FF48022014B5A6057
:1019B000704700BF40F00F400F4A10600F4841F2DF
:1019C0003801435843F4806343500D4B596941F447
:1019D00000615961196821F4006119600949CB6AF5
:1019E00023F0807323F4E06343F48073CB62064BEF
:1019F0009A611046704700BFC80000200070044084
:101A000040F00F4000A004403C0000204FF4006272
:101A1000014B9A60704700BF40F00F404FF40062E6
:101A2000014B5A60704700BF40F00F400F4A1060F2
:101A30000F4841F23801435843F4806343500D4B43
:101A4000596941F480615961196821F48061196014
:101A500009498B6A23F0807323F4E06343F48073B5
:101A60008B62064BDA611046704700BFCC00002045
:101A70000070044040F00F4000A004403C000020F3
:101A80004FF48062014B9A60704700BF40F00F40F6
:101A90004FF48062014B5A60704700BF40F00F4026
:101AA00000BF00BF00BF7047002000BF00BF00BFE5
:101AB00000BF00BF00F101000928F6D900BF704740
:101AC00010B5044603E0FFF7EFFF643CA4B2642CBA
:101AD000F9D803E0FFF7E4FF0A3CA4B20A2CF9D8D6
:101AE00010BD00BF10B5044606E04EF66020FFF7BB
:101AF000E7FFA4F56A44603C4EF660239C42F4D8AC
:101B0000A0B2FFF7DDFF10BD10B5044605E045F2B9
:101B1000EB10FFF7E7FF013CA4B2002CF7D110BD9A
:101B200002440346934202D003F8011BFAE77047D0
:101B300012010000260100085555555555555555BB
:101B40004482000000020000408600000002000005
:101B50000084000000020000008400004002000039
:101B600004800000000200000000010001000300EA
:101B7000040004000400040000000100020003004F
:101B80000400040004000400010001000200010040
:101B9000010001000100010000000100010003003C
:101BA0000400040004000400000001000100030020
:101BB0000400050006000600040004000400040000
:101BC00004000500060006000400040004000400F0
:101BD00004000500060007000600060006000600D7
:101BE0000600060006000700601B0000081C00003D
:101BF000401B0000501B0000101C0000481B000090
:101C0000181C0000581B0000448000000002000067
:101C10008084000000020000808400004002000078
:101C200010000006000000000080000000000C0012
:0C1C300000000000000011000000400156
:101C3C003C1C000000000020000000003C1C0000C8
:101C4C000000FF1F0000000000000000000000006A
:041C5C000000000084
:040000030000119553
:00000001FF
