:1000000000000320410D00009D0D00004509000087
:1000100045090000450900004509000045090000A8
:100020004509000045090000450900004509000098
:100030004509000045090000450900004509000088
:100040004509000045090000450900004509000078
:100050004509000045090000450900004509000068
:100060004509000045090000450900004509000058
:100070004509000045090000450900004509000048
:100080004509000045090000450900004509000038
:100090004509000045090000450900004509000028
:1000A0004509000045090000011300004509000052
:1000B0004509000045090000450900004509000008
:1000C00045090000450900004509000045090000F8
:1000D00045090000450900004509000045090000E8
:1000E00045090000450900004509000045090000D8
:1000F00045090000450900004509000045090000C8
:1001000045090000450900004509000045090000B7
:1001100045090000450900004509000045090000A7
:100120004509000045090000450900004509000097
:100130004509000045090000450900004509000087
:100140004509000045090000450900004509000077
:100150004509000045090000450900004509000067
:100160004509000045090000450900004509000057
:100170004509000045090000450900004509000047
:100180004509000045090000450900004509000037
:080190004509000045090000CB
:10040000FFFFFFFFFFFFFFFFFFFFFFFF7EFFFFFF7D
:1004100080F31188704700BF08B50C4941F23802DB
:100420008B5843F400738B50094A136923F080738F
:1004300023F4E06343F4E06313610022054B1A7078
:1004400000F09EFCF020FFF7E3FF08BD00700440C1
:100450000090044000E00740194B1B7803F0C003F4
:10046000402B0ED0802B13D0F3B9154B5B7913F0D2
:10047000400F1BD1124B1B7813F0040F18D103202F
:1004800070470F4B5B7813F0020F13D101207047B8
:100490000B4B5B7913F0400F0ED1094B5B7813F0D7
:1004A000020F0BD1042070470020704707207047CF
:1004B00000207047022070470620704705207047D3
:1004C0000040064070B582B00546C0EBC0039B00FB
:1004D000B04AD45A14F0C00F17D0AF4941F23802D5
:1004E0008B5843F400738B50AC4A936C23F08073A9
:1004F00023F4E063936404F080039BB22BB1D36CCC
:1005000023F0807323F4E063D364A54B1A7A02F0DE
:100510000E02C5EBC5039B009E490B441B7A9A4211
:100520004AD09F4B5B7813F0010F0CD19C490A7A9B
:10053000C5EBC5039B00974803441B7A02F0F10208
:1005400013430B7238E0964B1B7813F0010F1FD04A
:10055000934A537803F0FE035370914B9B7913F049
:10056000010FFAD18E4A117AC5EBC5039B00894869
:1005700003441B7A01F0F1010B431372537843F0EB
:1005800001035370864B9B7913F0010FFAD013E0EF
:10059000834B5A7802F0FE025A70197AC5EBC502F5
:1005A00092007C480244127A01F0F1010A431A7267
:1005B0005A7842F001025A70FFF74EFF034603F0EB
:1005C0000F0304F00F0101EBC303764A32F8133036
:1005D00099420ED1C5EBC50292006E48024452F812
:1005E000030F009090889279ADF804008DF80620F2
:1005F0000CE003F00F026C4850F8222010680090C5
:1006000090889279ADF804008DF8062003F00F026F
:10061000072A00F23981DFE812F0080008004D00D7
:1006200070007000CB00FA00FA009DF800005C4AF0
:1006300010705B4A927912F0100FFAD09DF80160A9
:100640005748427826F0400602F04002324342709A
:100650009DF80260C27826F01F0602F01F023243A6
:10066000C2709DF80600514A107004F4807292B274
:100670001AB101204A4A10730AE004F4806292B26F
:100680001AB10220464A107302E00020444A107357
:100690009DF80300424A107104F4007292B222B134
:1006A0003F48027942F0400202719DF804003C4A42
:1006B0005071E9E09DF80000394A1070384A92798B
:1006C00012F0100FFAD09DF80100354E727820F02C
:1006D000400002F04002024372709DF80600334A67
:1006E000107004F0200292B2002A00F0CD802C4A53
:1006F000927912F0010FFAD0C6E09DF80100284E61
:10070000727820F0400002F04002024372709DF8BF
:100710000600264A107004F4807292B212B10120D1
:1007200030730AE004F4806292B21AB102201C4ACB
:10073000107302E000201A4A10739DF80000184A56
:10074000107004F0800292B222B1154A927912F030
:10075000020FFAD0124A927912F0100FFAD19DF8D6
:1007600002600F48C27826F01F0602F01F023243D3
:10077000C2709DF80320027104F4007292B21AB1A3
:10078000027942F0400202719DF80400044A50715F
:100790007AE000BF1815000000700440009004408B
:1007A0000040064060140000E014000000500640C5
:1007B0009DF80020484802709DF80160427826F0BC
:1007C000400602F04002324342709DF80600434A60
:1007D000107004F4807292B21AB101203E4A107374
:1007E0000AE004F4806292B21AB102203A4A10730D
:1007F00002E00020384A107304F0800292B2002A0E
:1008000042D0354A927912F0020FFAD03CE09DF8BE
:100810000600324A107004F4807292B21AB10120BC
:100820002D4A10730AE004F4806292B21AB10220D9
:10083000294A107302E00020274A10739DF8002017
:10084000254802709DF80160427826F0400602F0CB
:1008500040023243427007290AD1EA00521B92003B
:100860001F48024496791C480671D279427106E00D
:100870009DF80300184A10719DF804005071164A43
:10088000927912F0400FFAD0072B1FD8DFE803F05F
:10089000040A0A04111111180F4A927912F00C0F70
:1008A000FAD113E00C4A927902F00C02042AF9D131
:1008B0000CE0094A927902F00C02082AF9D105E00D
:1008C000054A927902F00C020C2AF9D199427FF480
:1008D00076AE02B070BD00BF00400640005006403A
:1008E0001815000038B54FF0E023124AC3F8082D60
:1008F000114B4CF22052DA814DF62812DA814FF476
:10090000E9721A800D4C41F244054FF0A273635115
:100910000020FFF7D7FD0A4B6351236843F44023BF
:10092000236041F20402A35823F4403343F480339C
:10093000A35038BD000000000020054000700440B6
:1009400000001301684620F007018D4601B4FFBE88
:100950005DF8040B85467047704700BF704700BFC5
:10096000704700BF704700BF704700BF704700BFAF
:1009700010B504460020014600F046FA204600F07B
:10098000BFFA10BD10B504460020012100F03CFA6A
:10099000204600F0B5FA10BD10B504460020012134
:1009A00000F032FA200A00F0ABFAE0B200F0A8FA48
:1009B00010BD00BF08B50020014600F05DFA002020
:1009C000012100F059FA08BD08B50020012100F00E
:1009D00053FAFFF7EFFFFD20FFF7CAFF1220FFF7E2
:1009E000D1FFFD20FFF7C4FFB120FFF7CBFFAE2002
:1009F000FFF7BEFFB320FFF7BBFFF120FFF7B8FF03
:100A0000CA20FFF7B5FF7F20FFF7BCFFA020FFF74C
:100A1000AFFF7420FFF7B6FF1520FFF7A9FF0020F6
:100A2000FFF7B0FF7F20FFF7ADFF7520FFF7A0FFB6
:100A30000020FFF7A7FF7F20FFF7A4FFA120FFF70B
:100A400097FF0020FFF79EFFA220FFF791FF0020F5
:100A5000FFF798FFB520FFF78BFF0020FFF792FF0D
:100A6000AB20FFF785FF0120FFF78CFFB120FFF7D8
:100A70007FFF3220FFF77CFFBE20FFF779FF0520C4
:100A8000FFF776FFA620FFF773FFC120FFF770FF87
:100A9000C820FFF777FF8020FFF774FFC820FFF71B
:100AA00071FFC720FFF764FF0F20FFF76BFFB42033
:100AB000FFF75EFFA020FFF765FFB520FFF762FF9D
:100AC0005520FFF75FFFB620FFF752FF0120FFF729
:100AD00059FFAF20FFF74CFF08BD00BF2DE9F041E3
:100AE0000446BDF8185010F0800F39D188461746DB
:100AF0001E4611F0800F33D1CB18802B02DDC1F1DF
:100B00007F06F6B2E319802B02DDC4F17F07FFB246
:100B10001520FFF72DFF2046FFF734FFE0190138BD
:100B2000C0B2FFF72FFF7520FFF722FF4046FFF707
:100B300029FF08EB06000138C0B2FFF723FF5C2055
:100B4000FFF716FF002407E0280AFFF71BFFE8B2B3
:100B5000FFF718FF0134A4B206FB07F39C42F3DB56
:100B6000BDE8F08100B583B00090002001468022EE
:100B70001346FFF7B3FF03B05DF804FB2DE9F04126
:100B800005460C4616469846BDF818701520FFF726
:100B9000EFFE2046FFF7F6FE601DC0B2FFF7F2FE43
:100BA0007520FFF7E5FE3046FFF7ECFE7F20FFF7EC
:100BB000E9FE5C20FFF7DCFE002618E005EB4503AC
:100BC0005B0023440C4AD35C334113F0010F03D084
:100BD0004046FFF7E1FE02E03846FFF7DDFE013454
:100BE000E4B200E00024052CE8D90136F6B2072E65
:100BF000F8D9BDE8F08100BF3415000000B583B01E
:100C0000FFF70AFC0020012100F06EF9142000F02B
:100C100005FCFFF7D9FE142000F000FC0020FFF7D0
:100C2000A1FF142000F0FAFB002400945A20402178
:100C300046224FF6FF73FFF7A1FF00945A20482188
:100C400046224FF6FF73FFF799FFFEE7104B11495D
:100C50000A465B1A18D1704712F0030F06D1032B16
:100C600004D9002142F8041B043B0DE012F0010FEF
:100C700006D1012B04D9002122F8021B023B03E01C
:100C8000002102F8011B013B002BE5D1704700BF9A
:100C9000A400002000000020884224D00ABB704736
:100CA00011F0030F0AD110F0030F07D1032A05D961
:100CB00051F8043B40F8043B043A12E011F0010FF4
:100CC0000AD110F0010F07D1012A05D931F8023BF2
:100CD00020F8023B023A04E011F8013B00F8013B26
:100CE000013A002ADCD17047124B13B310B500242F
:100CF00009E0630023449B000E4A134458689A6835
:100D0000FFF7CAFF013404EB44039B00094AD158A2
:100D10000029EED104EB44039B0013445B68002BD5
:100D2000E7D104EB44039B0013449B68002BE0D104
:100D300010BD7047341B0000704700BF704700BFF4
:100D400008B5FFF7F9FFFFF7CDFD0B4B184600285C
:100D500007D0854681B04FF000006FEA0000009098
:100D600001B0FFF773FFFFF7BFFFFFF7E7FF0020BA
:100D70000249FFF743FFFEE70000032004000020C4
:100D800008B5002000F016F8002000F04BF8002015
:100D900000F080F800F012F908BD00BF684620F0AE
:100DA00007018D4601B5FFF7D7FDBDE80140854637
:100DB000704700BF0F4A10600F4841F23801435896
:100DC00043F4007343500D4B596941F4005159618C
:100DD000196821F40051196009494B6B23F08073A5
:100DE00023F4E06343F480734B63064B1A601046B0
:100DF000704700BF2C0000200070044000F00F403E
:100E0000009004403800002021B14FF40052044B00
:100E10005A6070474FF40052014B9A60704700BF10
:100E200000F00F400F4A10600F4841F2380143585C
:100E300043F4007343500D4B596941F4805159619B
:100E4000196821F48051196009490B6B23F08073F4
:100E500023F4E06343F480730B63064B5A6010463F
:100E6000704700BF300000200070044000F00F40C9
:100E7000009004403800002021B14FF48052044B10
:100E80005A6070474FF48052014B9A60704700BF20
:100E900000F00F400F4A10600F4841F238014358EC
:100EA00043F4806343500D4B596941F0010159618E
:100EB000196821F00101196009490B6823F080735A
:100EC00023F4E06343F480730B60064B9A60104692
:100ED000704700BF340000200070044040F00F4015
:100EE00000A004403800002019B10122034B5A60D1
:100EF00070470122014B9A60704700BF40F00F40DD
:100F0000264B1B889BB2102B40D000B583B0014606
:100F1000EFF3138071B68DF80700214A137801337F
:100F2000DBB21370012B03D19DF807201D4B1A7003
:100F30001A4A138801339BB213801B480278531C52
:100F4000DBB20370194881540F2B02D90022164BD3
:100F50001A70174B1B7813F0200F0CD143F02003AD
:100F6000134A1370134B1B78134A10680F49194426
:100F7000012200F091F90A4A1378013BDBB21370A9
:100F80003BB9084A107880F3138803E00B23184616
:100F900070470023184603B05DF804FB6000002092
:100FA000000000209C0000205D0000204C0000207C
:100FB0004800002049000020A000002008B50020C3
:100FC0000D4B18700D4B18700D4B18700D4B188091
:100FD0000D4B18700D4B18700D4B18800D4B187081
:100FE0000D4B187000F0BAF80C4B18600C49012238
:100FF00000F024F908BD00BF480000205E0000207A
:101000005F000020740000204A0000205C000020E7
:1010100060000020490000205D000020A0000020AA
:101020004B00002010B5214B1B889BB20F2B19D809
:101030001E4A138801339BB213801D490A78531C42
:10104000DBB20B701B4908781B4988540F2B02D95F
:101050000022174B1A70154B1B889BB2102B0DD01A
:1010600004240CE0154A137843F040031370144A2B
:10107000137843F040031370012400E0062414F0B9
:10108000010F02D0FFF772FC09E014F0040F01D049
:10109000FFF764FC14F0020F01D0FFF763FC094B6B
:1010A00018680449012200F0C9F810BD740000203E
:1010B0005C0000204B00002064000020480000205D
:1010C0005E000020A000002010B51E4B1A7812F020
:1010D000200F01D1002400E002241B490B780133CA
:1010E000DBB20B700F2B02D90021174B1970174977
:1010F0000B88013B9BB20B800B889BB26BB142F01B
:101100002002104B1A70104B1B78114A10681149BD
:101110001944012200F0C0F808E022F03002094B27
:101120001A700D4B1B780BB944F0010414F0020F38
:1011300001D0FFF715FC14F0010F01D0FFF714FCEC
:1011400010BD00BF480000204900002060000020C2
:10115000A00000204C0000205F0000202E4BD86132
:101160002E4A13602E4A1A6000225A601A811A828F
:10117000DA605A821A835A612A4A41F23C001158B5
:1011800041F4805111502849702081F81A030868F1
:1011900040F08060086041F23800115841F400715D
:1011A000115002F50052516C21F0807121F4E06180
:1011B00041F400715164116C21F0807121F4E061FF
:1011C00041F400711164D16B21F0807121F4E06170
:1011D00041F40071D163916B21F0807121F4E061E1
:1011E00041F400719163A2F5E8321049116001F1F8
:1011F000004101F5705111600D49D1600D49D16276
:101200004FF400311163116821F0010111600A4AA5
:10121000D3601846704700BF7C0000207800002093
:10122000000001800070044000E100E001000101C5
:10123000111100B800002A9A3800002030B482B0A2
:101240000446038AF3B9EFF3138071B68DF80700F3
:101250000F4D28780130C0B22870012803D19DF8C5
:1012600007500C480570E160228200222281084963
:101270000A78013AD2B20A702AB9064A107880F385
:10128000138800E00823184602B030BC704700BF46
:10129000000000209C00002030B482B00446038B84
:1012A0001BBBEFF3138071B68DF80700114D287842
:1012B0000130C0B22870012803D19DF807500E48B4
:1012C000057061612283002262820C490A6B42F040
:1012D00000720A6307490A78013AD2B20A702AB941
:1012E000054A107880F3138800E00823184602B0FE
:1012F00030BC7047000000209C00002000C002406D
:10130000684620F007018D4631B5284B1C68284BF4
:10131000DD6A15F4002F02D04FF40022DA6215F4D2
:10132000003F16D0224B996B4FF40032DA62238AC9
:101330007BB1E3685A1CE2601970238901339BB2C8
:101340002381228A934204D100232382E069FFF79C
:1013500069FE15F0007F25D0638A228B934218D254
:1013600001339BB263826169481C6061087821681F
:1013700001439A4201D121F000410D4B5963628A29
:10138000238B9A420AD100232383E069FFF79CFE56
:1013900004E0074A136B23F0007313634FF00072ED
:1013A000034BDA62BDE83140854670477800002083
:1013B00000C0024000BF00BF00BF7047002000BF58
:1013C00000BF00BF00BF00BF00F101000928F6D92F
:1013D00000BF704710B5044603E0FFF7EFFF643C21
:1013E000A4B2642CF9D803E0FFF7E4FF0A3CA4B2EE
:1013F0000A2CF9D810BD00BF10B5044606E04EF621
:101400006020FFF7E7FFA4F56A44603C4EF66023D6
:101410009C42F4D8A0B2FFF7DDFF10BD10B5044622
:1014200004E00448FFF7E8FF013CA4B2002CF8D127
:1014300010BD00BFE97601004482000000020000F8
:1014400070A200000002000030A0000000020000B6
:1014500030A0000C580200000480000000020000D0
:101460000000010001000300040004000400040067
:101470000000010002000300040004000400040056
:101480000100010002000100010001000100010053
:101490000000010001000300040004000400040037
:1014A0000000010001000300040005000600060022
:1014B0000400040004000400040005000600060007
:1014C00004000400040004000400050006000700F6
:1014D00006000600060006000600060006000700DB
:1014E00058140000001500003814000048140000D3
:1014F00008150000401400001015000050140000F2
:101500004480000000020000B0A0000000020000C3
:1015100080A0000C580200005000000620E00F08D8
:101520000080000000000C0000000100000013011A
:101530000040DC0200000000000000641804641891
:10154000003C4040207C000C3040300C003C4030DF
:10155000403C00003E1C080000041E1F1E0400103A
:101560003C7C3C100020403E010200221408142262
:10157000000038283800000010381000000000106B
:101580000000000878080000000015150A00007F20
:101590007F0909010010207F010100040400011FE0
:1015A0000000191512000040605048440006090967
:1015B0000600000F020101000000011F01000044AD
:1015C000444A4A510014741C171400514A4A4444B6
:1015D00000000004040400007C5454440008082A5D
:1015E0001C08007C007C447C0004027F0204001084
:1015F000207F20100000000000000000006F0000AD
:1016000000000700070000147F147F140000070487
:101610001E00002313086462003649562050000063
:101620000007000000001C224100000041221C00B5
:101630000014083E08140008083E08080000503056
:101640000000000808080808000060600000002092
:1016500010080402003E5149453E0000427F400010
:10166000004261514946002141454B310018141296
:101670007F10002745454539003C4A494930000163
:101680007109050300364949493600064949291EB2
:101690000000363600000000563600000008142214
:1016A0004100001414141414000041221408000214
:1016B00001510906003E415D494E007E0909097E3F
:1016C000007F49494936003E41414122007F414166
:1016D000413E007F49494941007F09090901003E17
:1016E0004149497A007F0808087F0000417F410096
:1016F000002040413F01007F08142241007F40400C
:101700004040007F020C027F007F0408107F003EF3
:101710004141413E007F09090906003E4151215ED9
:10172000007F091929460046494949310001017FD6
:101730000101003F4040403F000F3040300F003F6C
:101740004030403F00631408146300070870080726
:10175000006151494543003C4A49291E00020408E2
:1017600010200000417F000000040201020400403C
:1017700040404040000000030400002054545478CE
:10178000007F4844443800384444442000384444EE
:10179000487F00385454541800087E090102000C98
:1017A0005252523E007F080404780000447D4000FD
:1017B000002040443D0000007F1028440000417F8D
:1017C0004000007C04180478007C08040478003889
:1017D00044444438007C1414140800081414187C81
:1017E000007C0804040800485454542000043F447A
:1017F0004020003C4040207C001C2040201C003C3D
:101800004030403C004428102844000C5050503CCC
:10181000004464544C440000083641410000007FFD
:101820000000004141360800000402040804007F63
:101830006B6B6B7F00007C447C000000087C000028
:1018400000006454480000004454280000001C10AC
:10185000780000005C5424000000785474000000FC
:1018600064140C0000007C547C0000005C543C00BC
:1018700000782426257800782526247800702A29E7
:101880002A700078252425780020545655780020A9
:1018900055565478002056555678002055545578A2
:1018A000007C54565544007C55565444007C565593
:1018B0005644007C55545544003854565518003849
:1018C0005556541800385655561800385554551862
:1018D0000000447E45000000457E44000000467D37
:1018E00046000000457C45000000487A41000000A9
:1018F000497A400000004A794200000049784100DE
:101900000038444645380038454644380038464596
:1019100046380038454445380030484A49300030A0
:10192000494A483000304A494A3000304948493035
:10193000003C4042413C003C4142403C003C424172
:10194000423C003C4140413C003C4042217C003C48
:101950004142207C003842412278003C4140217CB9
:10196000004E5171110A005864642410007C0A1161
:10197000227D007812090A710000000402010001B2
:101980000204000000000200020000304845402030
:101990000000007B000000384444384400403E49C9
:1019A000493600080408700C006050485060002060
:1019B000525559300038545454000000007F410003
:1019C000004022141860007C20201C2000443C04AD
:1019D0007C4400403C12120C0041635549410038E0
:1019E00044443C040008043C44240008147F1408C8
:1019F000004E7101714E004529112945000D5151CC
:101A0000513D00000005020500400040004000007C
:101A1000081C3E00001C1C1C000000007008070091
:101A200000000808080000001D1517000000070549
:101A30000700000011150A0000000000000000046B
:101A40003C412000007C161516080021160834427F
:101A5000007F091D01030038545414080000007C65
:101A60004040007F0E1C387F0041225D221C001C7C
:101A70003E1C0800007F7F7F7F7F00777B017B77A4
:101A8000007F4375437F007F6F55437F0040404098
:101A900040400044425F424400405E455E4000409A
:101AA00048555E400000040810200003070E1C3853
:101AB000000103070F1F007C787060400008081CBD
:101AC000221C00001C221C00000200080020000450
:101AD0003E3F3E0400103E7E3E1000552A552A55DA
:101AE00000242A7F2A1200041E1F1E04000000008A
:101AF00000000000000000000000000000000000E6
:101B000000000000000000000000000000000000D5
:101B100000000000000000000000000000000000C5
:101B200000000000000000000000000000000000B5
:041B300000000000B1
:101B3400341B00000000002000000000341B0000E3
:101B44000000FF1F00000000000000000000000073
:041B5400000000008D
:0400000300000D41AB
:00000001FF
