:1000000000000320450B0000F50B00004109000033
:1000100041090000410900004109000041090000B8
:1000200041090000410900004109000041090000A8
:100030004109000041090000410900004109000098
:100040004109000041090000410900004109000088
:100050004109000041090000410900004109000078
:100060004109000041090000410900004109000068
:100070004109000041090000410900004109000058
:100080004109000041090000410900004109000048
:100090004109000041090000410900004109000038
:1000A0004109000041090000410900000519000054
:1000B0004109000041090000410900004109000018
:1000C0004109000041090000410900004109000008
:1000D00041090000410900004109000041090000F8
:1000E0004109000041090000911B00004109000086
:1000F00041090000410900004109000041090000D8
:1001000041090000410900004109000041090000C7
:1001100041090000410900004109000041090000B7
:1001200041090000410900004109000041090000A7
:100130004109000041090000410900004109000097
:100140004109000041090000410900004109000087
:100150004109000041090000410900004109000077
:100160004109000041090000410900004109000067
:100170004109000041090000410900004109000057
:100180004109000041090000410900004109000047
:080190004109000041090000D3
:10040000FFFFFFFFFFFFFFFFFFFFFFFF7EFFFFFF7D
:1004100080F31188704700BF08B50C4941F23802DB
:100420008B5843F400738B50094A136923F080738F
:1004300023F4E06343F4E06313610022054B1A7078
:1004400000F0C6FBF020FFF7E3FF08BD007004409A
:100450000090044000E00740194B1B7803F0C003F4
:10046000402B0ED0802B13D0F3B9154B5B7913F0D2
:10047000400F1BD1124B1B7813F0040F18D103202F
:1004800070470F4B5B7813F0020F13D101207047B8
:100490000B4B5B7913F0400F0ED1094B5B7813F0D7
:1004A000020F0BD1042070470020704707207047CF
:1004B00000207047022070470620704705207047D3
:1004C0000040064070B582B00546C0EBC0039B00FB
:1004D000B04AD45A14F0C00F17D0AF4941F23802D5
:1004E0008B5843F400738B50AC4A936C23F08073A9
:1004F00023F4E063936404F080039BB22BB1D36CCC
:1005000023F0807323F4E063D364A54B1A7A02F0DE
:100510000E02C5EBC5039B009E490B441B7A9A4211
:100520004AD09F4B5B7813F0010F0CD19C490A7A9B
:10053000C5EBC5039B00974803441B7A02F0F10208
:1005400013430B7238E0964B1B7813F0010F1FD04A
:10055000934A537803F0FE035370914B9B7913F049
:10056000010FFAD18E4A117AC5EBC5039B00894869
:1005700003441B7A01F0F1010B431372537843F0EB
:1005800001035370864B9B7913F0010FFAD013E0EF
:10059000834B5A7802F0FE025A70197AC5EBC502F5
:1005A00092007C480244127A01F0F1010A431A7267
:1005B0005A7842F001025A70FFF74EFF034603F0EB
:1005C0000F0304F00F0101EBC303764A32F8133036
:1005D00099420ED1C5EBC50292006E48024452F812
:1005E000030F009090889279ADF804008DF80620F2
:1005F0000CE003F00F026C4850F8222010680090C5
:1006000090889279ADF804008DF8062003F00F026F
:10061000072A00F23981DFE812F0080008004D00D7
:1006200070007000CB00FA00FA009DF800005C4AF0
:1006300010705B4A927912F0100FFAD09DF80160A9
:100640005748427826F0400602F04002324342709A
:100650009DF80260C27826F01F0602F01F023243A6
:10066000C2709DF80600514A107004F4807292B274
:100670001AB101204A4A10730AE004F4806292B26F
:100680001AB10220464A107302E00020444A107357
:100690009DF80300424A107104F4007292B222B134
:1006A0003F48027942F0400202719DF804003C4A42
:1006B0005071E9E09DF80000394A1070384A92798B
:1006C00012F0100FFAD09DF80100354E727820F02C
:1006D000400002F04002024372709DF80600334A67
:1006E000107004F0200292B2002A00F0CD802C4A53
:1006F000927912F0010FFAD0C6E09DF80100284E61
:10070000727820F0400002F04002024372709DF8BF
:100710000600264A107004F4807292B212B10120D1
:1007200030730AE004F4806292B21AB102201C4ACB
:10073000107302E000201A4A10739DF80000184A56
:10074000107004F0800292B222B1154A927912F030
:10075000020FFAD0124A927912F0100FFAD19DF8D6
:1007600002600F48C27826F01F0602F01F023243D3
:10077000C2709DF80320027104F4007292B21AB1A3
:10078000027942F0400202719DF80400044A50715F
:100790007AE000BF1C360000007004400090044066
:1007A0000040064064350000E4350000005006407B
:1007B0009DF80020484802709DF80160427826F0BC
:1007C000400602F04002324342709DF80600434A60
:1007D000107004F4807292B21AB101203E4A107374
:1007E0000AE004F4806292B21AB102203A4A10730D
:1007F00002E00020384A107304F0800292B2002A0E
:1008000042D0354A927912F0020FFAD03CE09DF8BE
:100810000600324A107004F4807292B21AB10120BC
:100820002D4A10730AE004F4806292B21AB10220D9
:10083000294A107302E00020274A10739DF8002017
:10084000254802709DF80160427826F0400602F0CB
:1008500040023243427007290AD1EA00521B92003B
:100860001F48024496791C480671D279427106E00D
:100870009DF80300184A10719DF804005071164A43
:10088000927912F0400FFAD0072B1FD8DFE803F05F
:10089000040A0A04111111180F4A927912F00C0F70
:1008A000FAD113E00C4A927902F00C02042AF9D131
:1008B0000CE0094A927902F00C02082AF9D105E00D
:1008C000054A927902F00C020C2AF9D199427FF480
:1008D00076AE02B070BD00BF00400640005006403A
:1008E0001C36000038B54FF0E023124AC3F8082D3B
:1008F000114B4CF22052DA814DF62812DA814FF476
:10090000E9721A800D4C41F244054FF0A273635115
:100910000020FFF7D7FD4FF488136351236843F499
:100920004023236041F20402A35823F44033A35030
:1009300038BD00BF000000000020054000700440EA
:10094000684620F007018D4601B4FFBE5DF8040B38
:1009500085467047704700BF08B501F08FF908BDA4
:10096000704700BF704700BF704700BFFEE700BF81
:1009700010B58EB0FFF750FD00F070F908B1FFF729
:10098000F5FF2F482F49012202F06CFA08B1FFF75A
:10099000EDFF2D482D49122202F090FA08B1FFF721
:1009A000E5FF294B1846D96802F076FC20B9264BA2
:1009B0009A68DB689A4201D0FFF7D8FF0DA801F0D2
:1009C000C5F908B1FFF7D2FF0EAC002304F8343D9F
:1009D000204630219DF8342001F0C4FA2046302111
:1009E0003A2201F079FA204630219DF8352001F0B5
:1009F000B9FA204630213A2201F06EFA2046302121
:100A00009DF8362001F0AEFA20463021092201F08F
:100A100063FA204602F08AFD02460B4821466B46E7
:100A200002F0FAFA20B1084802F026FCFFF79EFF18
:100A3000054802F021FC4FF47A7001F0D7FAA8E7DC
:100A400008000020383600003C0200203C36000040
:100A5000104B11490A465B1A18D1704712F0030F68
:100A600006D1032B04D9002142F8041B043B0DE0FE
:100A700012F0010F06D1012B04D9002122F8021B2C
:100A8000023B03E0002102F8011B013B002BE5D1F2
:100A9000704700BF0C05002004000020884224D0CD
:100AA0000ABB704711F0030F0AD110F0030F07D1F2
:100AB000032A05D951F8043B40F8043B043A12E0FC
:100AC00011F0010F0AD110F0010F07D1012A05D949
:100AD00031F8023B20F8023B023A04E011F8013BF6
:100AE00000F8013B013A002ADCD17047124B13B3E6
:100AF00010B5002409E0630023449B000E4A134410
:100B000058689A68FFF7CAFF013404EB44039B005E
:100B1000094AD1580029EED104EB44039B00134449
:100B20005B68002BE7D104EB44039B0013449B68F4
:100B3000002BE0D110BD704738370000704700BF70
:100B4000704700BF08B5FFF7F9FFFFF7CBFE0B4B6F
:100B50001846002807D0854681B04FF000006FEAA4
:100B60000000009001B0FFF773FFFFF7BFFFFFF732
:100B7000E7FF00200249FFF7FBFEFEE7000003202D
:100B8000640400200D4A10600D4841F238014358BA
:100B900043F4006343500B494B6923F480734B616A
:100BA00009490B6A23F0807323F4E06343F48073F4
:100BB0000B62064B9A601046704700BF8C04002001
:100BC0000070044080F00F4000B00440900400200A
:100BD00008B5002000F07AFD00F082FF002000F050
:100BE000E7FE0020FFF7CEFF01F054F9002000F0EF
:100BF000F3FF08BD684620F007018D4601B5FFF7F9
:100C0000A9FEBDE801408546704700BF18B908B588
:100C100000F016FB08BD0420704700BF18B908B5E6
:100C200000F06EF808BD0420704700BF18B910B579
:100C300000F0E4F910BD0420704700BF18B910B5EA
:100C400000F01AFA10BD0420704700BF18B908B5AB
:100C500000F07EFB08BD0420704700BF08B50020EF
:100C600000F092FA00B11B2008BD00BF00B583B0B0
:100C700001A801F06BF8E0B9684601F0EDF8D0B9D1
:100C8000BDF80030A3F2BC729DF802305B0543EA68
:100C900042639DF8032043EA02439DF8040043EABF
:100CA000C0239DF8050043EA40139DF80600184351
:100CB00002E0002000E0002003B05DF804FB00BF6C
:100CC0000120704730B583B002AC04F8010D00225A
:100CD000094B1A70094D2868012200F075FD28683B
:100CE0002146012200F0A2FD034B1B7813F0FF0FF9
:100CF000FAD003B030BD00BFA5040020900400204E
:100D0000014B1878704700BF0100002010B584B077
:100D10008DF8070000220B4B1A700B4C20680DF168
:100D20000F01012200F050FD20680DF107010122A2
:100D300000F07CFD034B1B7813F0FF0FFAD004B0DA
:100D400010BD00BFA50400209004002008B5044B8E
:100D5000586800F05DFE034B1878FFF705FE08BDEC
:100D600090040020A404002010B5084C206800F076
:100D700021FD206800210A4600F090FD0022044B6E
:100D80001A70206800F00CFD10BD00BF9004002018
:100D9000A404002010B5084C206800F00BFD20686A
:100DA00001210A4600F07AFD0122044B1A702068E6
:100DB00000F0F6FC10BD00BF90040020A404002049
:100DC00008B5054B1B78012B02D1FFF7E3FF08BDE7
:100DD000FFF7CAFF08BD00BFA404002008B5054BFB
:100DE0001878FFF7BFFDFFF7EBFF034B586800F0E3
:100DF00009FE08BDA40400209004002010B582B0B4
:100E0000FFF7ECFFFF20FFF781FF322000F00AFE22
:100E10000446FF200DF10701FFF754FF9DF807304E
:100E2000FF2B04D0204600F03FFE0028F1D02046E2
:100E300000F020FEFFF78AFF9DF80730FF2B01D15D
:100E4000002000E0082002B010BD00BF70B582B0E5
:100E500006460D46FFF7C2FF4FF40074FF200DF168
:100E60000701FFF72FFF013CA4B29DF80730FF2BCD
:100E700001D1002CF2D1FF2B14D1322000F0D2FD91
:100E80000446FF200DF10701FFF71CFF9DF8073016
:100E9000FF2B04D1204600F007FE0028F1D02046A9
:100EA00000F0E8FD9DF80730FE2B0AD0FFF74EFF5B
:100EB000002011E0FF203146FFF704FF0136013D1D
:100EC000ADB2002DF6D1FF20FFF720FFFF20FFF786
:100ED0001DFFFFF73BFF012002B070BDF0B583B0EE
:100EE00005460F461446FFF789FF58BB0646FFF735
:100EF00075FF3846FFF70AFFFD2F06D11EE015F8F3
:100F0000010BFFF703FF013CA4B2002CF7D1FF2037
:100F1000FFF7FCFEFF20FFF7F9FEFF200DF10701B0
:100F2000FFF7D0FE9DF8073003F01F03052B02D01A
:100F3000FFF70CFF07E0FF20FFF7E8FEFFF706FFD3
:100F4000012600E00026304603B0F0BD30B583B086
:100F500004460D4610F0800F09D000F07F04772082
:100F60000021FFF7F3FF8DF80700012843D8FFF7B2
:100F700045FF00283ED1FFF731FF2046FFF7C6FEB0
:100F8000280EFFF7C3FEC5F30740FFF7BFFEC5F30A
:100F90000720FFF7BBFEE8B2FFF7B8FE402C03D0F6
:100FA000482C03D1872002E0952000E00120FFF7C4
:100FB000ADFE4C2C04D1FF200DF10701FFF782FE9E
:100FC0000A2000F02FFD0446FF200DF10701FFF776
:100FD00079FE9DF90730002B04DA204600F064FD0D
:100FE0000028F1D0204600F045FDFFF7AFFE9DF848
:100FF000070000E0FF2003B030BD00BFA3B338B549
:101000000D461C461A4B1B7813F0010F2ED1194BBD
:101010001B7813F0040F00D15202012C0BD1512088
:101020001146FFF793FFD8B928464FF40071FFF738
:101030000DFFA0B914E052201146FFF787FF78B9E1
:1010400028464FF40071FFF701FF18B105F5007550
:10105000013CF5D14C200021FFF778FF00E000248F
:10106000201C18BF012038BD04207047032038BD64
:101070000100002000000020002B48D070B50D4674
:1010800016461C46254B1B7813F0010F41D1234B0C
:101090001B7813F0040F3ED1214B1B7813F0040F83
:1010A00000D15602012C0CD158203146FFF74EFFDB
:1010B00048BB2846FE214FF40072FFF70FFFF8B936
:1010C00021E013F0100F03D0D7202146FFF73EFF99
:1010D00059203146FFF73AFFA8B92846FC214FF4C2
:1010E0000072FFF7FBFE18B105F50075013CF4D165
:1010F0000020FD214FF40072FFF7F0FE10B102E076
:10110000002400E00124201C18BF012070BD042031
:101110007047032070BD022070BD00BF0100002099
:1011200000000020F0B583B007460D4616460024A7
:101130008DF80740FFF752FE3846FFF7E7FD04E061
:10114000285DFFF7E3FD0134E4B2032CF8D99520C4
:10115000FFF7DCFD00240AE0FF200DF10701FFF797
:10116000B1FD9DF80730B34203D00134E4B2022C44
:10117000F2D9FFF7EBFD9DF80730B34201D1002013
:1011800000E0122003B0F0BD30B583B0012000F0C4
:101190002DFF0024204B1C70FFF720FEFFF7E4FD1D
:1011A0001E4B586800F034FC04E0FF20FFF7AEFD52
:1011B0000134E4B2092CF8D94FF47A7000F0F2FE51
:1011C000FFF7C4FD00230193322000F02BFC0446FE
:1011D00003E0204600F068FC40B9402001A901224C
:1011E000FFF7A0FF0028F4D1002500E001252046EC
:1011F00000F040FC65B9FFF7F1FD084B586800F0BE
:1012000007FCFF20FFF782FDFFF7A0FD002000E0B4
:10121000122003B030BD00BFA404002090040020C1
:1012200000B583B0FFF7DAFDFF200DF10701FFF7EE
:1012300049FDFFF78BFD9DF8070003B05DF804FB47
:10124000414B1B7813F0020F03D03F4B1878C0B20C
:10125000704730B583B00020FFF796FF00286FD1AC
:1012600040200021FFF772FE01285ED148204FF494
:10127000D571FFF76BFE012837D108E0FFF7D0FFEB
:1012800002AB234403F8040C0134E4B200E0002470
:10129000032CF3D99DF80630012B3ED19DF8073081
:1012A000AA2B3CD1E9204FF08041FFF74FFE0028E8
:1012B000F8D17A200021FFF749FE50B1002431E037
:1012C000FFF7AEFF02AB234403F8040C0134E4B291
:1012D00000E00024032CF3D99DF8043013F0400FF4
:1012E00001D006241EE002241CE0E9200021FFF7C3
:1012F0002DFE012802D80124E92501E0082441251A
:1013000028460021FFF722FE0028F9D150204FF493
:101310000071FFF71BFE20B904E0002402E0002466
:1013200000E00024FFF736FD00E00024074B1C70AE
:10133000054B1A7802F0FE021A701878C0B200E06D
:10134000012003B030BD00BF0100002000000020DC
:1013500070B584B0144605290CD11378012B40F2E6
:101360005A81022B01D004207AE1FFF7A9FC6070BA
:10137000002075E1BB4B1B7813F0010F40F06F812B
:10138000112900F24A81DFE811F012005D00A0008F
:10139000A5004801480148014801480148010001F1
:1013A0000501130121013501420018004301FFF737
:1013B00025FD002840F0338152E149200021FFF74C
:1013C000C5FD002840F02D8168461021FFF73EFD45
:1013D000002800F028819DF8053003F00F030A2B48
:1013E00008D00B2B0BD0092B0ED14FF400732380A8
:1013F000002035E14FF480632380002030E14FF47A
:101400000063238000202BE10020208028E1492078
:101410000021FFF79BFD002840F00781684610215E
:10142000FFF714FD002800F002819DF800309B09B1
:10143000012B03D102232370002011E1012323702B
:1014400000200DE149200021FFF780FD002840F039
:10145000F08068461021FFF7F9FC002800F0EB80CF
:101460009DF800309B09012B0BD19DF809309DF8A8
:10147000082003EB022301339BB29B022360002070
:10148000EEE09DF805309DF80A109DF8092003F064
:101490000F0303EBD11302F0030203EB42029DF8AA
:1014A00008009DF807309DF806109B0003EB901391
:1014B00001F0030103EB812301339BB2073A02F0F1
:1014C000FF02934023600020CAE04FF400731380B2
:1014D0000020C5E0644B1B7813F0020F1ED0CD2016
:1014E0000021FFF733FD002840F0A780FFF798FEAA
:1014F00068461021FFF7AAFC28B9B1E0FFF790FE7B
:10150000013DEDB200E03025002DF7D19DF80A2015
:1015100012091023934023600020A1E049200021FC
:10152000FFF714FD002840F08A8068461021FFF77D
:101530008DFC002800F085804B4B1B7813F0010FC9
:1015400012D09DF80A3003F03F029DF80B30DB0902
:1015500003EB420301339DF80D209209013AD2B208
:101560009340236000207BE09DF80A30C3F38401A0
:101570009DF80B3003F003005A0902EBC002531C24
:1015800001FB0333236000206AE0374B1B781370A4
:10159000002065E049200021FFF7D8FC002852D147
:1015A00020461021FFF752FC00284ED0002057E0C3
:1015B0004A200021FFF7CAFC002848D1204610210C
:1015C000FFF744FC002844D0002049E07A200021A5
:1015D000FFF7BCFC48B1042042E0661CFFF720FE88
:1015E0002070013DEDB2344600E00425002DF4D119
:1015F000002035E0CD200021FFF7A8FC58BBFFF705
:101600000FFE20464021FFF721FC30B3002027E0E9
:101610000020107024E0002022E0042020E00120BF
:101620001EE000201CE000201AE0002018E000204E
:1016300016E0002014E0002012E0002010E000205E
:101640000EE000200CE004200AE0042008E0042062
:1016500006E0042004E0042002E0042000E003206F
:1016600004B070BD01000020000000200122014BE9
:101670001A707047A50400200378C3B10023838348
:10168000C382838283810F4B1A6822F480421A60DE
:101690001A6842F400621A601A6842F480621A60A2
:1016A000094ADA621A6822F001021A607047054B93
:1016B0001A6842F001021A601A6842F480421A6005
:1016C000704700BF00D0024000000A9A2A4B1862FF
:1016D0002A4A136001221A704FF000425A60002219
:1016E0009A609A819A821A61DA829A839A61244A6C
:1016F00041F23C00115841F4005111502149702031
:1017000081F81B03086840F00060086041F238006F
:10171000115841F4005111501B494A6822F080725F
:1017200022F4E06242F4E0624A60CA6822F0807209
:1017300022F4E06242F4E062CA608A6822F08072B9
:1017400022F4E06242F400728A60104A104911608B
:1017500001F1004101F5705111600E49D1600E494F
:10176000D1624FF400311163116821F00101116061
:101770000A4A136018467047AC040020A8040020F1
:101780000070044000E100E000D0044000D00240BE
:1017900001000001040003B800002A9A9004002010
:1017A00008B503781BB901230370FFF765FF00201C
:1017B00008BD00BF08B503781BB100230370FFF715
:1017C0005BFF002008BD00BF30B482B00346007844
:1017D00000B39C8A04BBEFF3138071B68DF8070049
:1017E000104D28780130C0B22870012803D19DF82F
:1017F00007500D48057019619A8200229A81094AA2
:101800001378013BDBB213703BB9074B187880F3B8
:10181000138802E0072400E00824204602B030BC10
:10182000704700BF040000200805002030B482B0DB
:101830000346007828B39C8B2CBBEFF3138071B662
:101840008DF80700124D28780130C0B228700128A9
:1018500003D19DF807500F48057099619A830022C3
:10186000DA820D4A136B43F000731363084A13784E
:10187000013BDBB213703BB9064B187880F3138839
:1018800002E0072400E00824204602B030BC704784
:10189000040000200805002000D002400346017823
:1018A000F1B1012A1ED8818AF1B9808BF0B910B448
:1018B000114C216841F0010121600F49C96A11F002
:1018C000804FFAD10D4951F822400B49CC600C4CA5
:1018D00054F822205A600B6823F001030B6007E0E4
:1018E00007207047952070470820704708207047F0
:1018F0005DF8044B704700BF00D00240483600003E
:1019000050360000684620F007018D4631B5264B61
:101910001C68264BDD6A15F4002F02D04FF400221C
:10192000DA6215F4003F16D0204B996B4FF4003269
:10193000DA62A38A7BB123695A1C22611970A389D8
:1019400001339BB2A381A28A934204D10023A382D4
:10195000206AFFF78BFE15F0007F20D0E38AA28B70
:10196000934213D20133E382A3695A1CA2611A780D
:10197000636813430D4A5363E28AA38B9A420AD1E8
:101980000023A383206AFEF7EBFF04E0074A136BF2
:1019900023F0007313634FF00072044BDA62BDE86A
:1019A00031408546704700BFA804002000D00240A7
:1019B0000F4A10600F4841F23801435843F4005376
:1019C00043500D4B596941F010015961196821F0DC
:1019D0001001196009490B6923F0807323F4E06357
:1019E00043F480730B61064B5A601046704700BF8A
:1019F000D00400200070044000F10F4000D00440EB
:101A0000900400201022014B9A60704700F10F40B3
:101A10001022014B5A60704700F10F4008B5FEF7E5
:101A20009BFF08BD82B0024600B90122EFF310808F
:101A300072B68DF80700002301E00133DBB21BB959
:101A40000A49C95C0029F8D02BB900200749C854BD
:101A5000074921F813209DF8070080F31088012B17
:101A600001D0184600E0FF2002B07047D4040020E7
:101A7000D80400200346FF2811D082B0EFF3108075
:101A800072B68DF807000021054A22F813100121D3
:101A9000044AD1549DF8070080F3108802B07047C3
:101AA000D8040020D40400200346FF2811D082B0BF
:101AB000EFF3108072B68DF80700084A32F9133040
:101AC000B3FA83F35B099DF8070080F3108818468A
:101AD00001E00120704702B0704700BFD804002029
:101AE000002308E00021054A22F813100121044ACE
:101AF000D1540B44DBB2002BF4D07047D804002043
:101B0000D404002002461D4BD868002830D11C4B5D
:101B10009A6001221A711B4A13601B4841F23C0172
:101B2000425842F080724250184A04215165002107
:101B30001160D1645160D1605161D1615162D16253
:101B40005163D16351644CF6CC4191604FF4807184
:101B5000196001F1E021702081F82A03486840F4FF
:101B6000806048604A211160044AD360184670477B
:101B70008260037901330371704700BF9004002035
:101B8000E0040020DC0400200070044000800340DA
:101B9000684620F007018D4601B50D4B1B680D4AC4
:101BA000126812F0800F01D1002201E04FF4807220
:101BB0001968114207D007490A6822F080020A60BA
:101BC000986800F01FF8BDE801408546704700BFE7
:101BD000DC0400200080034010B5084CA060012305
:101BE0002371074B1C610020FFF78CFF206018B9A0
:101BF0000022034B1A6110BD004810BDEC04002008
:101C00009004002008B5034B1B699868FFF706FF96
:101C100008BD00BF90040020632B20D810B483B00F
:101C200004463B2A1DD83B291DD817281DD8EFF3A1
:101C3000108072B68DF8070041F2707000FB01F160
:101C40000C4800FB0414642101FB024213440A4ABD
:101C500013609DF8070080F31088002006E0022042
:101C60007047022002E0022000E0022003B05DF88D
:101C7000044B7047407E0500FC04002082B0EFF367
:101C8000108072B68DF80700294A1368013313607B
:101C90009DF8070080F31088264A934245D9A3F5A2
:101CA0000303A3F55643224A1360EFF3108072B684
:101CB0008DF80700204A13780133DBB213709DF8CA
:101CC000070080F310881D4A128812F0030F01D01C
:101CD0001B4900E01B491C4A12780A4412F8012CE7
:101CE000934222D90122144B1A70EFF3108072B67E
:101CF0008DF80700144A13780133DBB213709DF896
:101D0000070080F310880C2B0FD901220E4B1A709C
:101D1000EFF3108072B68DF80700084A138801337C
:101D200013809DF8070080F3108802B0704700BF51
:101D3000FC040020FFD58300F904002000050020EA
:101D40006436000058360000F804002010B483B058
:101D50000146EFF3108072B68DF80700164B1C6831
:101D60009DF8070080F31088A309144AA2FB0323FF
:101D70009B080B70124A02FB1342124BA3FB020397
:101D8000DB094B7041F2707000FB13200E4AA2FB7E
:101D9000003252098A70642303FB120303EB8303AE
:101DA0005B000A4AA2FB0323C3F3C703CB700020E6
:101DB00003B05DF8044B7047FC040020779A2E00B6
:101DC000407E0500F11976051F85EB51CDCCCCCCBA
:101DD00010B483B00446A0F2CE739BB2652B21D819
:101DE0000C2921D811B31F2A22D81AB310F0030FDF
:101DF00001D0144B00E0144B0B4413F8013C934208
:101E00001AD3EFF3108072B68DF807000F4B1A70DB
:101E10000F4B19700F4B1C809DF8070080F3108842
:101E200000200AE0022008E0022006E0022004E090
:101E3000022002E0022000E0022003B05DF8044B23
:101E4000704700BF6436000058360000F9040020D7
:101E5000F80400200005002082B00346EFF3108054
:101E600072B68DF80700084A12881A80074A12785D
:101E70009A70074A1278DA709DF8070080F310888C
:101E8000002002B0704700BF00050020F8040020C9
:101E9000F904002008B50E2033211F220023FFF78C
:101EA000BBFE40F2DC7007211622FFF791FF08BD50
:101EB000013901E00130013939B10378002BF9D142
:101EC00003E0013203700139013011B11378002BA6
:101ED000F7D1002303707047013901E00130013967
:101EE00011B10378002BF9D109B102700130002340
:101EF0000370704770B44D1E13462AB935B13022B5
:101F000002708D1E012111E000210FE000210DE083
:101F10004E1C114AA2FB0342D20802EB8204640069
:101F20001B1B30334354013D93B2F1B263B1002D1A
:101F3000EED1002309E0C45CCA1A013A855CC5549D
:101F400084540133DBB200E00023B3EB510FF2D332
:101F50000023435470BC7047CDCCCCCC08B5FFF700
:101F6000C9FF08BD30B583B005460C4601A8042161
:101F7000FFF7F4FF2846214601AAFFF799FF03B0B7
:101F800030BD00BF00BF00BF00BF7047002000BFD2
:101F900000BF00BF00BF00BF00F101000928F6D953
:101FA00000BF704710B5044603E0FFF7EFFF643C45
:101FB000A4B2642CF9D803E0FFF7E4FF0A3CA4B212
:101FC0000A2CF9D810BD00BF10B5044606E04EF645
:101FD0006020FFF7E7FFA4F56A44603C4EF66023FB
:101FE0009C42F4D8A0B2FFF7DDFF10BD10B5044647
:101FF00005E045F2EB10FFF7E7FF013CA4B2002C2F
:10200000F7D110BD04E00A7802701A4601310130A0
:10201000531E002AF7D1704702E001701A460130C2
:10202000531E002AF9D1704770B4002301E02946FD
:102030003046541E32B1461C03784D1C08782246A7
:102040001B1AF4D0184670BC704700BF00E0013086
:10205000037813B15AB28A42F9D158B2704700BF1F
:10206000426A0432490A03689878B1FBF0F11368B8
:102070003BB1994202D3C91A0832F8E750680844C4
:1020800070470020704700BFCA7E8B7E43EA022360
:102090000278032A05D1487D0A7D42EA002243EAFC
:1020A00002431846704700BF8176C1F30723C37609
:1020B000090C0175090A4175704700BF2DE9F84FF9
:1020C00088460C6800E0013423785AB22F2AFAD0EF
:1020D0005C2AF8D08769384620210B22FFF79CFF45
:1020E00094F900302E2B1FD100210B465A1CE35CC3
:1020F0002E2B05D1022A03D87B5413460131F5E774
:102100002F2B03D05C2B01D0202B75D82244C8F88C
:102110000020202B01D8242300E02023FB72002084
:10212000BDE8F88F5B4604E0002633464FF008090F
:10213000B24603F1010BE35CDDB2202D36D92F2D21
:1021400034D05C2D32D02E2D01D04E450CD3B9F1B8
:10215000080F54D12E2D55D14FEA8A0A5FFA8AFA18
:1021600008264FF00B09DDE713F0800F04D04AF08A
:10217000030A803D284B5D5D28482946FFF766FF2E
:10218000002842D1A5F14103DBB2192B02D84AF055
:10219000020A08E0A5F16103DBB2192B03D84AF06B
:1021A000010A203DEDB2BD550136BBE75C44C8F8DD
:1021B0000040202D01D8042300E0002346B33A78E4
:1021C000E52A01D105223A70B9F1080F03D14FEA8F
:1021D0008A0A5FFA8AFA0AF00302012A01D143F05F
:1021E00010030AF00C0ABAF1040F01D143F00803FE
:1021F000FB720020BDE8F88F0620BDE8F88F0620AE
:10220000BDE8F88F0620BDE8F88F0620BDE8F88FFE
:102210000620BDE8F88F00BF70360000F0360000E1
:1022200010B4046824B94FF0FF3322E0013200E01B
:1022300022461378D9B2202902D959B23A29F5D1C8
:102240005BB23A2B14D1611C94F90030303B092B5E
:1022500005D8914206D143B90132026009E04FF03E
:10226000FF3306E04FF0FF3303E04FF0FF3300E0B1
:10227000002318465DF8044B704700BFF8B503799A
:1022800003B30446066B00F1340740783946324602
:102290000123FEF7D3FCB8B900232371636AF31A54
:1022A000E269934212D2E57808E0E3691E4460785F
:1022B000394632460123FEF7C1FC013D012DF4D819
:1022C0000020F8BD0020F8BD0120F8BD0020F8BDB9
:1022D00070B504460D46036B8B4210D0FFF7CEFF5E
:1022E000064668B9607804F134012A460123FEF7F6
:1022F0009DFC10B101264FF0FF35256300E000265C
:10230000304670BD10B50446002303714FF0FF3313
:102310000363FFF7DDFF80BB94F8332294F8323279
:1023200043EA02231BB2194A934228D194F86D2044
:1023300094F86C301B0443EA026394F86B2043EA80
:10234000022394F86A20134323F07F43104A9342F8
:1023500017D094F8892094F888301B0443EA02636C
:1023600094F8872043EA022394F88620134323F04D
:102370007F43074A934206D110BD032010BD0220BF
:1023800010BD002010BD012010BD00BF55AAFFFFE9
:102390004641540080B108B503687BB1197879B122
:1023A000D988828891420DD15878FEF737FC10F019
:1023B000010F09D0032008BD09207047092008BD7E
:1023C000092008BD092008BD002008BDF0B585B072
:1023D00006461746002303600846FFF721FF051E47
:1023E000C0F27D81CD4B53F82540002C00F079815F
:1023F0003460237873B16078FEF710FC10F0010FA1
:1024000008D1002F00F06F8110F0040F40F06D81B3
:10241000002094E100232370E8B26070FEF7F6FB21
:1024200010F0010F40F063811FB110F0040F40F075
:10243000608120460021FFF765FF01281BD00026A0
:102440002DE004EB021393F8F61103F5F97351B183
:10245000D87A997A090441EA0061587A41EA002160
:102460001B7A194300E0002104AB03EB820343F81D
:10247000101C013200E00022032AE2D9002504AB3F
:1024800003EB850353F8106C26B120463146FFF765
:1024900039FF00E0022010B10135032DEFD90328E8
:1024A00000F02981002840F0288194F8402094F819
:1024B0003F3043EA02231BB2B3F5007F40F01F8197
:1024C00094F84B1094F84A3053EA01210DD194F856
:1024D0005B2094F85A301B0443EA026394F85910C5
:1024E00043EA012394F858101943E16194F8442019
:1024F000E270531EDBB2012B00F2038101FB02F7F5
:1025000094F84130A370002B00F0FD805A1E134256
:1025100040F0FB8094F846E094F8452042EA0E2E05
:10252000A4F808E01EF00F0F40F0F18094F8480086
:1025300094F8472052EA00220DD194F8570094F8FD
:102540005620120442EA006294F8550042EA002044
:1025500094F85420024394F8435094F8420050EA0F
:10256000052000F0D68000EB070C0CEB1E1C62452A
:10257000C0F0D180CCEB0202B2FBF3F3002B00F0F1
:10258000D78040F6F572934201D8012500E002257C
:102590004FF6F572934200D903250233A3612662F8
:1025A0003218626206EB0C00E062032D14D1BEF11A
:1025B000000F40F0BF8094F8630094F8622012048A
:1025C00042EA006294F8610042EA002294F8600056
:1025D0000243A2629B000FE0BEF1000F00F0AC804E
:1025E0003A44A262022D01D15B0005E003EB4302F5
:1025F00003F0010303EB520303F2FF13B1EB532F7C
:10260000C0F09C804FF0FF332361E360802363714F
:10261000032D5AD194F8652094F8643043EA0223DC
:102620001BB2012B51D12046711CFFF751FE00282F
:102630004BD10023637194F8332294F8323243EA89
:1026400002231BB2364A93423FD194F8372094F8C4
:1026500036301B0443EA026394F8352043EA022330
:1026600094F8342013432F4A93422ED194F81B221E
:1026700094F81A321B0443EA026394F8192243EADD
:10268000022394F818221343274A93421DD194F849
:102690001F2294F81E321B0443EA026394F81D22A1
:1026A00043EA022394F81C221343236194F8232263
:1026B00094F822321B0443EA026394F8212243EA8D
:1026C000022394F820221343E3602570174A1388ED
:1026D00001339BB21380E380002060612FE00B2068
:1026E0002DE00C202BE0002029E00A2027E0032029
:1026F00025E00A2023E0012021E00D201FE00D202D
:102700001DE00D201BE00D2019E00D2017E00D202D
:1027100015E00D2013E00D2011E000BF040500209E
:1027200055AAFFFF525261417272416102050020B9
:102730000D2004E00D2002E00D2000E00D2005B08A
:10274000F0BD00BF70B50446FFF798FD05460028B0
:1027500054D12378032B4AD16379012B47D104F15B
:102760003406304600214FF40072FFF755FC552324
:1027700084F83232AA2384F83332522384F8343076
:1027800084F83530612384F83630412284F83720CC
:10279000722184F8181284F8191284F81A2284F825
:1027A0001B32236984F81C32C3F3072284F81D22EC
:1027B000C3F3074284F81E221B0E84F81F32E3681D
:1027C00084F82032C3F3072284F82122C3F307429E
:1027D00084F822221B0E84F82332226A01322263FB
:1027E000607831460123FEF729FA0023637160788F
:1027F00000210A46FEF72AFA00B10125284670BDDD
:1028000002398369023B8B4204D98378C06A01FB99
:10281000030070470020704701295FD9F8B583692C
:102820008B425DD90C4605460378022B29D0032B39
:1028300038D0012B56D101EB5106416A01EB5621EC
:10284000FFF746FD00284FD1771CC6F308062E443B
:1028500096F83460696A284601EB5721FFF738FD86
:10286000002844D1C7F30800284490F8340046EA11
:10287000002014F0010F01D00009F8BDC0F30B00D7
:10288000F8BD416A01EB1421FFF722FD90BB610006
:1028900001F4FF716B1893F8350093F8343043EA74
:1028A0000020F8BD416A01EBD411FFF711FD20BBF8
:1028B000A10001F4FE716A1892F8370092F83630E0
:1028C0001B0443EA006392F8350043EA00200D44FC
:1028D00095F83430184320F07040F8BD012070475F
:1028E0000120F8BD0120F8BD4FF0FF30F8BD4FF0DA
:1028F000FF30F8BD4FF0FF30F8BD4FF0FF30F8BDAE
:10290000F8B505460E46E9808468012C34D003688A
:102910009A69A24232D91CB91A78032A00D19C6A5A
:1029200024B91A89B2422BD9986A17E09F783F01DF
:102930000EE028682146FFF76FFF0446B0F1FF3F25
:1029400020D0012820D92B689B6983421ED9F61B11
:10295000BE42EED228682146FFF752FFEC60B8B1C4
:1029600000EB161028612B6806F00F0603EB4616E5
:1029700034366E610020F8BD0220F8BD0220F8BD9B
:102980000220F8BD0120F8BD0220F8BD0220F8BDEC
:102990000220F8BD2DE9F0410C46012940F281806A
:1029A0000546164683698B427DD90378022B42D0B7
:1029B000032B54D0012B78D101EB5107416A01EB75
:1029C0005721FFF785FC034600286FD107F1010866
:1029D000C7F3080714F0010409D0EB1993F8342069
:1029E000F3B202F00F0242EA0313DBB200E0F3B2EB
:1029F0002F4487F8343001232B71696A284601EB94
:102A00005821FFF765FC034600284FD1C8F308089A
:102A100014B1C6F3071608E005EB080292F834205B
:102A200022F00F02C6F303261643A84488F8346048
:102A300001222A713AE0416A01EB1421FFF748FCB8
:102A4000034698BB640004F4FF742A1982F83460CA
:102A5000C6F3072682F8356001222A7126E0416A12
:102A600001EBD411FFF734FC0346F8B9A40004F4D9
:102A7000FE742A1992F8371009062C4401F07041AF
:102A80000E4384F83460C6F3072182F83510C6F38C
:102A9000074182F83610360E82F8376001222A711B
:102AA00004E0022302E0022300E002231846BDE80E
:102AB000F08100BFF8B505460F4629B9C6687EB15A
:102AC0008369B3420ED90EE0FFF7A6FE012846D96E
:102AD000B0F1FF3F48D0AB69834245D83E4602E0A3
:102AE000012600E0012634460134AB69A34202D836
:102AF000012E36D9022428462146FFF78DFE0346D3
:102B000048B1B0F1FF3F01D0012801D11846F8BD0E
:102B1000B442E9D127E0284621466FF07042FFF722
:102B200039FF034630B92FB1284639462246FFF710
:102B300031FF03465BB9EC602B69B3F1FF3F0CD06A
:102B4000013B2B616B7943F001036B7105E0012BB5
:102B500002D14FF0FF3400E001242046F8BD0120EF
:102B6000F8BD0020F8BD0020F8BD00BF2DE9F04100
:102B7000C4880134A3B2002B66D00369002B66D051
:102B80000E46054614F00F0755D101330361C168A5
:102B900021B903681B89A3425CD94CE000688378A3
:102BA000013B13EA141346D1FFF736FE8046012895
:102BB00053D9B0F1FF3F53D028688369434533D8D8
:102BC000002E50D0E968FFF775FF804600284DD0F1
:102BD00001284ED0B0F1FF3F4ED02868FFF74EFBE2
:102BE00000284CD12868343000214FF40072FFF7E0
:102BF00013FA2E6830464146FFF702FE3063002686
:102C00000BE001221A712868FFF738FB002839D140
:102C10002A68136B0133136301362B689A78B2422A
:102C2000EFD81A6B921B1A63C5F80C8028684146CE
:102C3000FFF7E6FD2861EC802B6803EB4713343384
:102C40006B610020BDE8F0810420BDE8F081042024
:102C5000BDE8F0810420BDE8F0810220BDE8F081EC
:102C60000120BDE8F0810420BDE8F0810720BDE827
:102C7000F0810220BDE8F0810120BDE8F081012053
:102C8000BDE8F0810120BDE8F08100BF38B5044601
:102C90000021FFF735FEE0B920682169FFF718FB36
:102CA0000546A0B96069037883B1C37A13F0080FB1
:102CB00004D1A1690B22FFF7B7F940B120460021EA
:102CC000FFF754FF05460028E6D000E0042528461B
:102CD00038BD38BD30B583B0044601910B785AB287
:102CE0002F2A01D05C2A04D1013101910023A36075
:102CF00002E003685B698360019B1B781F2B07D888
:102D000020460021FFF7FCFD05460023636130E00B
:102D1000204601A9FFF7D2F9054650BB2046FFF730
:102D2000B5FFA369DB7A80B104281BD113F0200F13
:102D300006D00022A260626113F0040FE8D018E010
:102D400013F0040F10D0054613E013F0040F0DD15B
:102D50006169CB7A13F0100F0AD02068FFF794F95D
:102D6000A060D5E7054604E0052502E0054600E041
:102D70000525284603B030BD70B504460E46002137
:102D8000FFF7BEFD0246B8B9002520682169FFF7AC
:102D90009FFA024680B963691B78E52B00D01BB906
:102DA0000135B54201D107E0002520460121FFF79A
:102DB000DDFE02460028E8D0042A00D10722104692
:102DC00070BD00BF38B505460121FFF7D5FF0446A9
:102DD00090B928682969FFF77BFA044660B96869E9
:102DE00000212022FFF718F96869A9690B22FFF773
:102DF00009F92B6801221A71204638BDF8B50D4635
:102E0000012926D9044683698B4224D900271CE076
:102E100020462946FFF700FD064608B301281CD0CE
:102E2000B0F1FF3F1BD0204629460022FFF7B2FD3C
:102E30000746A8B92369B3F1FF3F05D001332361E9
:102E4000637943F0010363713546A369AB42DFD870
:102E500006E0022704E0022702E0022700E0012743
:102E60003846F8BD10B584B001900091144604A80E
:102E700040F8041DFFF7D4F9002816DB0E4B53F879
:102E800020300BB100221A70019B0BB100221A7086
:102E9000019B094A42F820304BB1012C09D101A80D
:102EA00069460022FFF792FA04E00B2002E00020BE
:102EB00000E0002004B010BD040500202DE9F0431F
:102EC0008DB00191002800F0A2800546164600232F
:102ED000036002F01F0805A801A902F01E02FFF717
:102EE00075FA0446002840F0908002AB0B9305A8C9
:102EF0000199FFF7EFFE0A9F044608B907B90624B7
:102F000016F01C0F49D04CB1042C03D105A8FFF7D3
:102F100059FF044648F008080A9F0AE0FB7A13F0BC
:102F2000110F03D116F0040F02D102E0072400E0D4
:102F30000824002C40D118F0080F3DD0FDF796FE74
:102F4000B873C0F30723FB73C0F307433B74000E51
:102F500078740026FE723E777E77BE77FE770598FE
:102F60003946FFF791F8814638463146FFF79CF81D
:102F7000059801230371B9F1000F1DD0066B494676
:102F8000FFF73CFF0446B8B9059809F1FF33C36069
:102F90003146FFF79DF904460EE06CB9FB7A13F059
:102FA000100F06D116F0020F06D013F0010F02D158
:102FB00002E0042400E0072444B918F0080F01D00F
:102FC00048F02008059B1B6BEB612F62ECB985F87C
:102FD00006800026EE71DDF8148040463946FFF782
:102FE00053F82861FA7FBB7F1B0443EA02637A7FB0
:102FF00043EA02233A7F1343EB60AE60AE616E6238
:10300000C5F80080B8F80630AB80204600E0092003
:103010000DB0BDE8F08300BF2DE9F84F04468846A7
:1030200016461F4600233B60FFF7B4F9002840F026
:10303000CB80E079002840F0CA80A37913F0020F1A
:1030400000F0C480A368F342C0F0AF800026ACE07B
:10305000A168C1F30803002B40F08D8022689378AB
:10306000013BDBB213EA512924D129B9206968B99F
:103070001046FFF71FFD09E0636A1BB12046FEF70B
:10308000EFFF03E010466169FFF714FD002800F030
:103090008F80012803D10220E071BDE8F88FB0F1E4
:1030A000FF3F03D10120E071BDE8F88F6061236923
:1030B00003B92061A37913F0400F10D0214651F8D5
:1030C000283B5878A2690123FDF7B8FD18B101200B
:1030D000E071BDE8F88FA37923F04003A371D4F821
:1030E00000A050466169FFF78BFB054618B9022026
:1030F000E071BDE8F88F4D445FEA562B26D009EB0E
:103100000B039AF80220934201D9C9EB020B9AF8FB
:10311000010041462A465B46FDF790FD18B10120AB
:10312000E071BDE8F88FA169491B59450BD204F144
:10313000280008EB41214FF40072FEF763FFA379EA
:1031400023F04003A3714FEA4B2526E0A369AB426D
:1031500010D0A268E3689A420CD29AF8010004F1F8
:1031600028012A460123FDF761FD18B10120E07115
:10317000BDE8F88FA561A068C0F30800C0F5007530
:10318000B54200D935462830204441462A46FEF74C
:1031900039FFA37943F04003A371A844A3682B44EB
:1031A000A3603B682B443B60761B002E7FF450AF3E
:1031B000A368E268934200D9E360A37943F0200357
:1031C000A3710020BDE8F88FBDE8F88F0720BDE8A7
:1031D000F88F00BF38B50446FFF7DCF80346002837
:1031E00045D1A27912F0200F41D012F0400F0DD03E
:1031F000214651F8283B5878A2690123FDF71EFDAE
:10320000002836D1A37923F04003A3712068E16937
:10321000FFF75EF8034650BB256AEB7A43F02003C4
:10322000EB72237B2B77A3891B0A6B77A37BAB778E
:10323000E37BEB7728462169FEF736FFFDF716FDA5
:10324000A875C0F30723EB75C0F307432B76000E78
:1032500068760023AB74EB74A37923F02003A37189
:10326000236801221A712068FFF76CFA034618469A
:1032700038BD012038BD00BF10B50446FFF7AAFFD6
:10328000034630B92046FFF785F8034608B9002207
:103290002260184610BD00BF2DE9F84F04460E46C7
:1032A000FFF778F80546002840F03E81E0790028D5
:1032B00040F03A81636A002B00F08D80B6F1FF3F49
:1032C0003FD103F1040BD3F800A0D4F81090B9F16A
:1032D000000F2AD04FF0020800E0814608F10208F2
:1032E0004E460027013720683146FFF795FA01283E
:1032F00003D80220E071BDE8F88FB0F1FF3F03D1A1
:103300000120E071BDE8F88F731C06468342E9D0C6
:10331000D04505D85B4643F8087BCBF804909B4624
:1033200023689B698342D8D801E04FF00208636AA2
:10333000C3F80080D04500F2F3800023CBF80030C2
:10334000EFE0E768B74200D33746A760002F00F0F0
:10335000E88007F1FF3820464146FEF781FE01462E
:10336000606126683046FFF74BFA18B90220E07119
:10337000BDE8F88FB378013B03EA58288044C7F3CF
:103380000807002F00F0CD80A269424500F0C980F7
:10339000A37913F0400F0ED0707804F128010123B7
:1033A000FDF74CFC18B10120E071BDE8F88FA3795E
:1033B00023F04003A371214651F8283B5878424638
:1033C0000123FDF733FC18B10120E071BDE8F88F4F
:1033D000C4F81880A5E0E368B34204D2A27912F0E1
:1033E000020F00D11E46A3680022A260002E61D009
:1033F000206887787F026BB1721EB2FBF7F2013B47
:10340000B3FBF7F18A4205D37A421340A360F61A60
:10341000616913E0216981B9FFF74CFB014601287E
:1034200003D10220E071BDE8F88FB0F1FF3F03D176
:103430000120E071BDE8F88F2061616129BB0026A1
:103440003BE0A37913F0020F05D02068FFF732FBB1
:10345000014620B91CE02068FFF7DEF90146B1F112
:10346000FF3F03D10120E071BDE8F88F012903D9A6
:1034700023689B698B4203D80220E071BDE8F88F76
:103480006161A3683B44A360F61BBE42D9D800E04B
:103490003E46A3683344A360C6F3080363B12068C3
:1034A000FFF7AEF918B90220E071BDE8F88F00EB24
:1034B000562602E0002600E00026A368C3F30803B6
:1034C00023B3A269B24221D0A37913F0400F0FD0E9
:1034D000214651F8283B58780123FDF7AFFB18B17E
:1034E0000120E071BDE8F88FA37923F04003A371B8
:1034F000214651F8283B587832460123FDF796FBC8
:1035000018B10120E071BDE8F88FA661A368E268F8
:10351000934206D9E360A37943F02003A37100E04E
:1035200011252846BDE8F88FBDE8F88F034613F84B
:10353000012B002AFBD1181A013870474482000081
:10354000000200004086000000020000008400002D
:10355000000200000084000040020000048000001F
:10356000000200000000010001000300040004004C
:103570000400040000000100020003000400040035
:10358000040004000100010002000100010001002C
:10359000010001000000010001000300040004001C
:1035A0000400040000000100010003000400050005
:1035B00006000600040004000400040004000500E6
:1035C00006000600040004000400040004000500D6
:1035D00006000700060006000600060006000600BA
:1035E000060007005C350000043600003C35000092
:1035F0004C3500000C360000443500001436000045
:103600005435000044800000000200008084000067
:10361000000200008084000040020000100000064C
:10362000000000000080000000000C00000000000E
:103630000000110000004001300000002E2F6865DE
:103640007572652E74787400040003B8000000B829
:1036500000000080000000801F1D1F1E1F1E1F1F76
:103660001E1F1E1F1F1C1F1E1F1E1F1F1E1F1E1F73
:10367000809A90418E418F804545454949498E8FBA
:103680009092924F994F555559999A9B9C9D9E9F08
:1036900041494F55A5A5A6A7A8A9AAABAC21AEAF95
:1036A000B0B1B2B3B4B5B6B7B8B9BABBBCBDBEBFA2
:1036B000C0C1C2C3C4C5C6C7C8C9CACBCCCDCECF92
:1036C000D0D1D2D3D4D5D6D7D8D9DADBDCDDDEDF82
:1036D000E0E1E2E3E4E5E6E7E8E9EAEBECEDEEEF72
:1036E000F0F1F2F3F4F5F6F7F8F9FAFBFCFDFEFF62
:1036F000222A2B2C3A3B3C3D3E3F5B5D7C7F000009
:10370000EBFE904D53444F53352E30004E4F204E1C
:10371000414D4520202020464154333220202000B6
:103720004E4F204E414D4520202020464154202020
:043730002020200035
:04373400010100008F
:103738003437000000000020040000003837000083
:103748000000FF1F00000000000000000000000053
:04375800000000006D
:0400000300000B45A9
:00000001FF
