:1000000000000320A91100000D12000041090000AA
:1000100041090000410900004109000041090000B8
:1000200041090000410900004109000041090000A8
:100030004109000041090000410900004109000098
:100040004109000041090000410900004109000088
:100050004109000041090000410900004109000078
:100060004109000041090000410900004109000068
:100070004109000041090000410900004109000058
:100080004109000041090000410900004109000048
:100090004109000041090000410900004109000038
:1000A0004109000041090000291800004109000031
:1000B0004109000041090000410900004109000018
:1000C0004109000041090000410900004109000008
:1000D00041090000410900004109000041090000F8
:1000E00041090000410900004109000041090000E8
:1000F00041090000410900004109000041090000D8
:1001000041090000410900004109000041090000C7
:1001100041090000410900004109000041090000B7
:1001200041090000410900004109000041090000A7
:100130004109000041090000410900004109000097
:100140004109000041090000410900004109000087
:100150004109000041090000410900004109000077
:100160004109000041090000410900004109000067
:100170004109000041090000410900004109000057
:100180004109000041090000410900004109000047
:080190004109000041090000D3
:10040000FFFFFFFFFFFFFFFFFFFFFFFF7EFFFFFF7D
:1004100080F31188704700BF08B50C4941F23802DB
:100420008B5843F400738B50094A136923F080738F
:1004300023F4E06343F4E06313610022054B1A7078
:1004400000F0D2FEF020FFF7E3FF08BD007004408B
:100450000090044000E00740194B1B7803F0C003F4
:10046000402B0ED0802B13D0F3B9154B5B7913F0D2
:10047000400F1BD1124B1B7813F0040F18D103202F
:1004800070470F4B5B7813F0020F13D101207047B8
:100490000B4B5B7913F0400F0ED1094B5B7813F0D7
:1004A000020F0BD1042070470020704707207047CF
:1004B00000207047022070470620704705207047D3
:1004C0000040064070B582B00546C0EBC0039B00FB
:1004D000B04AD45A14F0C00F17D0AF4941F23802D5
:1004E0008B5843F400738B50AC4A936C23F08073A9
:1004F00023F4E063936404F080039BB22BB1D36CCC
:1005000023F0807323F4E063D364A54B1A7A02F0DE
:100510000E02C5EBC5039B009E490B441B7A9A4211
:100520004AD09F4B5B7813F0010F0CD19C490A7A9B
:10053000C5EBC5039B00974803441B7A02F0F10208
:1005400013430B7238E0964B1B7813F0010F1FD04A
:10055000934A537803F0FE035370914B9B7913F049
:10056000010FFAD18E4A117AC5EBC5039B00894869
:1005700003441B7A01F0F1010B431372537843F0EB
:1005800001035370864B9B7913F0010FFAD013E0EF
:10059000834B5A7802F0FE025A70197AC5EBC502F5
:1005A00092007C480244127A01F0F1010A431A7267
:1005B0005A7842F001025A70FFF74EFF034603F0EB
:1005C0000F0304F00F0101EBC303764A32F8133036
:1005D00099420ED1C5EBC50292006E48024452F812
:1005E000030F009090889279ADF804008DF80620F2
:1005F0000CE003F00F026C4850F8222010680090C5
:1006000090889279ADF804008DF8062003F00F026F
:10061000072A00F23981DFE812F0080008004D00D7
:1006200070007000CB00FA00FA009DF800005C4AF0
:1006300010705B4A927912F0100FFAD09DF80160A9
:100640005748427826F0400602F04002324342709A
:100650009DF80260C27826F01F0602F01F023243A6
:10066000C2709DF80600514A107004F4807292B274
:100670001AB101204A4A10730AE004F4806292B26F
:100680001AB10220464A107302E00020444A107357
:100690009DF80300424A107104F4007292B222B134
:1006A0003F48027942F0400202719DF804003C4A42
:1006B0005071E9E09DF80000394A1070384A92798B
:1006C00012F0100FFAD09DF80100354E727820F02C
:1006D000400002F04002024372709DF80600334A67
:1006E000107004F0200292B2002A00F0CD802C4A53
:1006F000927912F0010FFAD0C6E09DF80100284E61
:10070000727820F0400002F04002024372709DF8BF
:100710000600264A107004F4807292B212B10120D1
:1007200030730AE004F4806292B21AB102201C4ACB
:10073000107302E000201A4A10739DF80000184A56
:10074000107004F0800292B222B1154A927912F030
:10075000020FFAD0124A927912F0100FFAD19DF8D6
:1007600002600F48C27826F01F0602F01F023243D3
:10077000C2709DF80320027104F4007292B21AB1A3
:10078000027942F0400202719DF80400044A50715F
:100790007AE000BFE41C00000070044000900440B8
:1007A000004006402C1C0000AC1C0000005006401D
:1007B0009DF80020484802709DF80160427826F0BC
:1007C000400602F04002324342709DF80600434A60
:1007D000107004F4807292B21AB101203E4A107374
:1007E0000AE004F4806292B21AB102203A4A10730D
:1007F00002E00020384A107304F0800292B2002A0E
:1008000042D0354A927912F0020FFAD03CE09DF8BE
:100810000600324A107004F4807292B21AB10120BC
:100820002D4A10730AE004F4806292B21AB10220D9
:10083000294A107302E00020274A10739DF8002017
:10084000254802709DF80160427826F0400602F0CB
:1008500040023243427007290AD1EA00521B92003B
:100860001F48024496791C480671D279427106E00D
:100870009DF80300184A10719DF804005071164A43
:10088000927912F0400FFAD0072B1FD8DFE803F05F
:10089000040A0A04111111180F4A927912F00C0F70
:1008A000FAD113E00C4A927902F00C02042AF9D131
:1008B0000CE0094A927902F00C02082AF9D105E00D
:1008C000054A927902F00C020C2AF9D199427FF480
:1008D00076AE02B070BD00BF00400640005006403A
:1008E000E41C000038B54FF0E023124AC3F8082D8D
:1008F000114B4CF22052DA814DF62812DA814FF476
:10090000E9721A800D4C41F244054FF0A273635115
:100910000020FFF7D7FD4FF488136351236843F499
:100920004023236041F20402A35823F44033A35030
:1009300038BD00BF000000000020054000700440EA
:10094000684620F007018D4601B4FFBE5DF8040B38
:1009500085467047704700BF704700BF704700BFB3
:10096000704700BF704700BF704700BF10B5044616
:100970000020014600F080FC204600F0F9FC10BD8C
:1009800010B504460020012100F076FC204600F05E
:10099000EFFC10BD08B50020014600F0A5FC0020CA
:1009A000012100F0A1FC08BD08B50020012100F0E4
:1009B0009BFCFFF7EFFFFD20FFF7D8FF1220FFF7AA
:1009C000DFFFFD20FFF7D2FFB120FFF7D9FFAE20F8
:1009D000FFF7CCFFB320FFF7C9FFF120FFF7C6FFF9
:1009E000CA20FFF7C3FF7F20FFF7CAFFA020FFF751
:1009F000BDFF7420FFF7C4FF1520FFF7B7FF0020ED
:100A0000FFF7BEFF7F20FFF7BBFF7520FFF7AEFFAC
:100A10000020FFF7B5FF7F20FFF7B2FFA120FFF70F
:100A2000A5FF0020FFF7ACFFA220FFF79FFF0020EB
:100A3000FFF7A6FFB520FFF799FF0020FFF7A0FF03
:100A4000AB20FFF793FF0120FFF79AFFB120FFF7DC
:100A50008DFF3220FFF78AFFBE20FFF787FF0520BA
:100A6000FFF784FFA620FFF781FFC120FFF77EFF7D
:100A7000C820FFF785FF8020FFF782FFC820FFF71F
:100A80007FFFC720FFF772FF0F20FFF779FFB42029
:100A9000FFF76CFFA020FFF773FFB520FFF770FF93
:100AA0005520FFF76DFFB620FFF760FF0120FFF72D
:100AB00067FFAF20FFF75AFF08BD00BF10F0800F9F
:100AC0001BD111F0800F18D138B50D460446152002
:100AD000FFF74CFF2046FFF753FF7F20FFF750FF43
:100AE0007520FFF743FF2846FFF74AFF7F20FFF7F7
:100AF00047FF5C20FFF73AFF38BD70472DE9F04112
:100B00000446BDF8185010F0800F39D188461746BA
:100B10001E4611F0800F33D1CB18802B02DDC1F1BE
:100B20007F06F6B2E319802B02DDC4F17F07FFB226
:100B30001520FFF71BFF2046FFF722FFE0190138C1
:100B4000C0B2FFF71DFF7520FFF710FF4046FFF70B
:100B500017FF08EB06000138C0B2FFF711FF5C2059
:100B6000FFF704FF002407E0280AFFF709FFE8B2B7
:100B7000FFF706FF0134A4B206FB07F39C42F3DB48
:100B8000BDE8F08100B583B00090002001468022CE
:100B90001346FFF7B3FF03B05DF804FB10F0800FBE
:100BA0000DD110B5144611F0800F07D1FFF786FF65
:100BB000200AFFF7E5FEE0B2FFF7E2FE10BD704746
:100BC00030B5ADF5344D85B004A800214FF4344262
:100BD00001F008F80023019302930393FFF71CFC34
:100BE00000F05CF800F044FA08B100F0ABF900F056
:100BF000E9F901A800F00CFA0020012100F0ACFB9B
:100C0000142000F0E3FFFFF7CFFE142000F0DEFF1A
:100C10000020FFF7B7FF322000F0D8FF00F0AEF958
:100C20000128FBD1C82000F0D1FF04A800F0C2F9D0
:100C300070B131E003EB002204A98A5C3F2A00D89E
:100C40000134023300E00023FF2BF3DD023001E02A
:100C500000200446B328F6DDC82C1ADC1CE005EBA6
:100C6000D57004EBD47104EB052304AAD25CD20046
:100C7000C0F34700C1F3470142F4784242F01F023B
:100C8000FFF78CFF023400E00024FF2CE7DD023583
:100C900000E00025B32DF7DDFEE700BF08B500201A
:100CA00000F050FF012000F091FF002000F052FF03
:100CB00008BD00BF08B5FFF7F1FF08BD10B582B051
:100CC00002AC002304F8013D00F09AFC204600F03D
:100CD0007DFC9DF8070002B010BD00BF70B5044652
:100CE0000E4615460078FFF7E9FFCC281AD1607848
:100CF000FFF7E4FFCC2817D1A078FFF7DFFFCC285F
:100D000014D1E078FFF7DAFFCC2811D1002405E0F8
:100D1000305DFFF7D3FFAA280CD10134AC42F7DBDA
:100D2000002070BD012070BD012070BD012070BD8C
:100D3000012070BD022070BD2DE9F04F83B00190FD
:100D40008B4615469A464FF0000805EB8507BF0015
:100D50007FB175B105F2E73240F2CE739A4208D9FD
:100D6000324880FB0530EB17C3EBA01080B200F0D7
:100D70002DFF2E4C84FB0523EC17C4EBA3144FF47A
:100D80007A7303FB145404EB8406B60056B10A2EA2
:100D900002D800F0E7FE05E004EB8403980080B27F
:100DA00000F0F0FE0020FFF789FF8146012823D0E4
:100DB0007FB175B105F2E73240F2CE739A4208D99D
:100DC0001A4880FB0530EB17C3EBA01080B200F08F
:100DD000FDFE56B10A2E02D800F0C4FE05E004EB79
:100DE0008404A00080B200F0CDFE08F10108BAF141
:100DF000000FAAD0D045A8DBB9F1010F0CD106E055
:100E00000020FFF75BFF019B1855013400E0002430
:100E10005C45F5DB002005E0B9F1B00F01D1FF2002
:100E200000E0012003B0BDE8F08F00BFD34D621099
:100E300070B500242546264613E00020FFF73EFF4C
:100E40000134302802D0CC2804D005E0042D05D18F
:100E5000012604E0013502E0002500E00025132C06
:100E600003DC002EE9D0002070BD012070BD00BF62
:100E700070B516461D46C278FFF730FF044630B9FC
:100E800030462946049A059BFFF756FF044614B1E5
:100E9000FFF7CEFF00E0002008B1FFF70BFFE0B244
:100EA00070BD00BF2DE9F04184B007468846154665
:100EB00010238DF80C3000218DF80E108DF80F10D6
:100EC00080238DF80D304FF47A73009340F24C4339
:100ED000019303A83A462B46FFF7CAFF034660BBBF
:100EE00000228DF80D2001240FE08DF80E400A231A
:100EF00000938023019303A8002105FB04722B4675
:100F0000FFF7B6FF034620B9013408F1FF36A642C9
:100F1000EBDC93B901238DF80D3008F1FF388DF823
:100F20000E800A2300938023019303A8002105FB70
:100F300006722B46FFF79CFF0346184604B0BDE837
:100F4000F08100BF00B585B012238DF80C30002170
:100F50008DF80D108DF80E108DF80F100A230093E8
:100F60008023019303A80DF10B020123FFF780FFFB
:100F70009DF80B0005B05DF804FB00BF00B585B01F
:100F80000B4B18680390002104AA02F8051D642386
:100F900000938023019303A80123FFF769FF9DF8C5
:100FA0000B005A2894BF0020012005B05DF804FB17
:100FB000F41B000008B5B4214FF48072FFF772FFF4
:100FC00008BD00BF00B585B0F5238DF80C300021B9
:100FD0008DF80D108DF80E108DF80F10ADF808106B
:100FE0008DF80A100A2300938023019303A802AA14
:100FF0000323FFF73DFF9DF808009DF809301B0211
:1010000043EA00439DF80A00184305B05DF804FB6D
:1010100000B585B0024620238DF80C3000218DF8F4
:101020000D108DF80E108DF80F100A2300938023F9
:10103000019303A80C23FFF71BFF05B05DF804FB29
:1010400010B586B00246094B5868059003AC53F8BA
:10105000080F596803C40A2300938023019305A84D
:1010600003A90923FFF704FF06B010BDF41B00001D
:1010700000B585B00023019302938DF80C3001A8D0
:10108000FFF7DEFF9DF80C304BB100200EE004AB03
:10109000034413F80C3C552B04D1013000E0002030
:1010A0000728F4DD082814BF0020012005B05DF8F2
:1010B00004FB00BF104B11490A465B1A18D1704758
:1010C00012F0030F06D1032B04D9002142F8041BB0
:1010D000043B0DE012F0010F06D1012B04D90021D1
:1010E00022F8021B023B03E0002102F8011B013B36
:1010F000002BE5D1704700BFD80000200000002081
:10110000884224D00ABB704711F0030F0AD110F0B7
:10111000030F07D1032A05D951F8043B40F8043BDB
:10112000043A12E011F0010F0AD110F0010F07D1BB
:10113000012A05D931F8023B20F8023B023A04E0CB
:1011400011F8013B00F8013B013A002ADCD170475D
:10115000124B13B310B5002409E0630023449B0035
:101160000E4A134458689A68FFF7CAFF013404EB2B
:1011700044039B00094AD1580029EED104EB4403F3
:101180009B0013445B68002BE7D104EB44039B00F6
:1011900013449B68002BE0D110BD7047001D000078
:1011A000704700BF704700BF08B5FFF7F9FFFFF7B2
:1011B00099FB0B4B1846002807D0854681B04FF0AD
:1011C00000006FEA0000009001B0FFF773FFFFF727
:1011D000BFFFFFF7E7FF00200249FFF7F1FCFEE742
:1011E000000003200400002008B5002000F01AF8D9
:1011F000002000F04FF8002000F084F800F016F90D
:1012000000F022FA002000F073FC08BD684620F0D0
:1012100007018D4601B5FFF79DFBBDE801408546FE
:10122000704700BF0F4A10600F4841F23801435821
:1012300043F4007343500D4B596941F40051596117
:10124000196821F40051196009494B6B23F0807330
:1012500023F4E06343F480734B63064B1A6010463B
:10126000704700BF2C0000200070044000F00F40C9
:10127000009004403800002021B14FF40052044B8C
:101280005A6070474FF40052014B9A60704700BF9C
:1012900000F00F400F4A10600F4841F238014358E8
:1012A00043F4007343500D4B596941F48051596127
:1012B000196821F48051196009490B6B23F0807380
:1012C00023F4E06343F480730B63064B5A601046CB
:1012D000704700BF300000200070044000F00F4055
:1012E000009004403800002021B14FF48052044B9C
:1012F0005A6070474FF48052014B9A60704700BFAC
:1013000000F00F400F4A10600F4841F23801435877
:1013100043F4806343500D4B596941F00101596119
:10132000196821F00101196009490B6823F08073E5
:1013300023F4E06343F480730B60064B9A6010461D
:10134000704700BF340000200070044040F00F40A0
:1013500000A004403800002019B10122034B5A605C
:1013600070470122014B9A60704700BF40F00F4068
:10137000264B1B889BB2102B40D000B583B0014692
:10138000EFF3138071B68DF80700214A137801330B
:10139000DBB21370012B03D19DF807201D4B1A708F
:1013A0001A4A138801339BB213801B480278531CDE
:1013B000DBB20370194881540F2B02D90022164B5F
:1013C0001A70174B1B7813F0200F0CD143F0200339
:1013D000134A1370134B1B78134A10680F491944B2
:1013E000012200F0EDF90A4A1378013BDBB21370D9
:1013F0003BB9084A107880F3138803E00B231846A2
:1014000070470023184603B05DF804FB6800002015
:1014100000000020CC0000206500002054000020C7
:101420005000002051000020D000002008B500200E
:101430000D4B18700D4B18700D4B18700D4B18801C
:101440000D4B18700D4B18700D4B18800D4B18700C
:101450000D4B187000F018F90C4B18600C49012264
:1014600000F080F908BD00BF500000206600002099
:10147000670000207C000020520000206400002053
:10148000680000205100002065000020D0000020EE
:101490005300002010B5214B1B889BB20F2B19D88D
:1014A0001E4A138801339BB213801D490A78531CCE
:1014B000DBB20B701B4908781B4988540F2B02D9EB
:1014C0000022174B1A70154B1B889BB2102B0DD0A6
:1014D00004240CE0154A137843F040031370144AB7
:1014E000137843F040031370012400E0062414F045
:1014F000010F02D0FFF738FA09E014F0040F01D011
:10150000FFF72AFA14F0020F01D0FFF729FA094B6E
:1015100018680449012200F025F910BD7C00002064
:1015200064000020530000206C00002050000020C8
:1015300066000020D000002010B51E4B1A7812F073
:10154000200F01D1002400E002241B490B78013355
:10155000DBB20B700F2B02D90021174B1970174902
:101560000B88013B9BB20B800B889BB26BB142F0A6
:101570002002104B1A70104B1B78114A1068114949
:101580001944012200F01CF908E022F03002094B56
:101590001A700D4B1B780BB944F0010414F0020FC4
:1015A00001D0FFF7DBF914F0010F01D0FFF7DAF9F2
:1015B00010BD00BF50000020510000206800002036
:1015C000D0000020540000206700002038B50546F8
:1015D000094C206800F042FA206800F03DFA40B162
:1015E00006490B782B702068012200F0D9F9002001
:1015F00038BD0A2038BD00BFD40000207F00002085
:10160000F8B506460D4C27780D4D286800F026FAEF
:10161000267028682146012200F0F0F9082802D13E
:1016200027700B20F8BD074A137823F002031370CC
:10163000034B186800F012FA0020F8BD800000206B
:10164000D40000207E00002008B5002000F046F9FC
:10165000054B1860054A137843F0020313700449E0
:10166000012200F09DF908BDD40000207E0000207A
:101670007F000020704700BF024A137843F0020346
:10168000137070477E0000202E4BD8612E4A1360E5
:101690002E4A1A6000225A601A811A82DA605A822F
:1016A0001A835A612A4A41F23C00115841F4805190
:1016B00011502849702081F81A03086840F08060B2
:1016C000086041F23800115841F40071115002F5E0
:1016D0000052516C21F0807121F4E06141F40071FD
:1016E0005164116C21F0807121F4E06141F40071CA
:1016F0001164D16B21F0807121F4E06141F400713B
:10170000D163916B21F0807121F4E06141F40071AB
:101710009163A2F5E8321049116001F1004101F531
:10172000705111604FF03841D1600C49D1624FF4D3
:1017300000311163116821F001011160084AD36082
:1017400018467047880000208400002000000180B7
:101750000070044000E100E00100010100002A9A4D
:101760003800002030B482B00446038AF3B9EFF3A6
:10177000138071B68DF807000F4D28780130C0B284
:101780002870012803D19DF807500C480570E160CE
:1017900022820022228108490A78013AD2B20A70D4
:1017A0002AB9064A107880F3138800E00823184607
:1017B00002B030BC704700BF00000020CC00002009
:1017C00030B482B00446038B1BBBEFF3138071B6B9
:1017D0008DF80700114D28780130C0B2287001281B
:1017E00003D19DF807500E480570616122830022E5
:1017F00062820C490A6B42F000720A6307490A7858
:10180000013AD2B20A702AB9054A107880F31388D7
:1018100000E00823184602B030BC704700000020EA
:10182000CC00002000C00240684620F007018D4631
:1018300031B5284B1C68284BDD6A15F4002F02D007
:101840004FF40022DA6215F4003F16D0224B996B58
:101850004FF40032DA62238A7BB1E3685A1CE260FB
:101860001970238901339BB22381228A934204D1C8
:1018700000232382E069FFF70DFE15F0007F25D0DD
:10188000638A228B934218D201339BB263826169CF
:10189000481C60610878216801439A4201D121F017
:1018A00000410D4B5963628A238B9A420AD100236F
:1018B0002383E069FFF740FE04E0074A136B23F03F
:1018C000007313634FF00072034BDA62BDE83140DE
:1018D000854670478400002000C0024010B42A4BA7
:1018E000D8612A4A1A6000225A601A811A82DA6084
:1018F0005A821A835A61264941F23C04085940F43D
:101900000050085141F23804085940F480600851F1
:1019100001F54051486C20F0807020F4E06040F404
:1019200000704864086C20F0807020F4E06040F49F
:1019300000700864C86A20F0807020F4E06040F411
:101940000070C862886A20F0807020F4E06040F483
:1019500000708862A1F5E8310E48086000F100408F
:1019600000F5705008604FF03840C8600A48C862FF
:101970000A630A6822F001020A60084A13611846E5
:101980005DF8044B704700BFA800002000000180F4
:10199000007004400100010100002A9A3800002074
:1019A00030B482B00446038AF3B9EFF3138071B602
:1019B0008DF807000F4D28780130C0B2287001283B
:1019C00003D19DF807500C480570E1602282002287
:1019D000228108490A78013AD2B20A702AB9064A25
:1019E000107880F3138800E00823184602B030BC5A
:1019F000704700BF00000020CC00002030B482B04F
:101A00000446038BF3B9EFF3138071B68DF807002A
:101A10000F4D28780130C0B22870012803D19DF8FD
:101A200007500C48057061612283002262820849D8
:101A30000A78013AD2B20A702AB9064A107880F3BD
:101A4000138800E00823184602B030BC704700BF7E
:101A500000000020CC0000200089704738B5044603
:101A6000224BDD6A15F4002F02D04FF40022DA6217
:101A700015F4003F16D01D4B996B4FF40032DA621B
:101A8000238A7BB1E3685A1CE26019702389013311
:101A90009BB22381228A934204D100232382E069EE
:101AA000FFF7E8FD15F0007F1FD0638A228B934279
:101AB00017D201339BB263826169481C6061087868
:101AC000216801439A4201D121F00041074B59633B
:101AD000628A238B9A4204D100232383E069FFF7B3
:101AE000CBFD4FF00072014BDA6238BD00D00240EE
:101AF0000F4A10600F4841F23801435843F48063A5
:101B000043500D4B596941F480215961196821F402
:101B10008021196009498B6C23F0807323F4E06302
:101B200043F480738B64064B5A611046704700BFC4
:101B3000C80000200070044040F00F4000A00440A6
:101B4000380000204FF48022014B9A60704700BF9C
:101B500040F00F404FF48022014B5A60704700BFA5
:101B600040F00F4000BF00BF00BF7047002000BF23
:101B700000BF00BF00BF00BF00F101000928F6D977
:101B800000BF704710B5044603E0FFF7EFFF643C69
:101B9000A4B2642CF9D803E0FFF7E4FF0A3CA4B236
:101BA0000A2CF9D810BD00BF10B5044606E04EF669
:101BB0006020FFF7E7FFA4F56A44603C4EF660231F
:101BC0009C42F4D8A0B2FFF7DDFF10BD10B504466B
:101BD00005E045F2EB10FFF7E7FF013CA4B2002C53
:101BE000F7D110BD02440346934202D003F8011B13
:101BF000FAE77047120100002601000855555555B7
:101C000055555555448200000002000040860000F2
:101C100000020000008400000002000000840000B8
:101C200040020000048000000002000000000100EB
:101C3000010003000400040004000400000001008F
:101C4000020003000400040004000400010001007D
:101C5000020001000100010001000100000001007C
:101C6000010003000400040004000400000001005F
:101C70000100030004000500060006000400040043
:101C8000040004000400050006000600040004002F
:101C9000040004000400050006000700060006001A
:101CA000060006000600060006000700241C0000CF
:101CB000CC1C0000041C0000141C0000D41C0000FC
:101CC0000C1C0000DC1C00001C1C000044800000F8
:101CD00000020000808400000002000080840000F8
:101CE000400200001000000600000000008000001C
:101CF00000000C0000000000000011000000400186
:101D0000001D00000000002000000000001D000079
:101D10000000FF1F000000000000000000000000A5
:041D200000000000BF
:04000003000011A93F
:00000001FF
